{"abi":[{"inputs":[{"internalType":"uint256","name":"minimum","type":"uint256"},{"internalType":"address","name":"campaignManager","type":"address"}],"stateMutability":"nonpayable","type":"constructor"},{"inputs":[{"internalType":"uint256","name":"requestIndex","type":"uint256"}],"name":"ApproveRequest","outputs":[],"stateMutability":"nonpayable","type":"function"},{"inputs":[],"name":"Contribute","outputs":[],"stateMutability":"payable","type":"function"},{"inputs":[{"internalType":"string","name":"description","type":"string"},{"internalType":"uint256","name":"value","type":"uint256"},{"internalType":"address","name":"recipient","type":"address"}],"name":"CreateRequest","outputs":[],"stateMutability":"nonpayable","type":"function"},{"inputs":[{"internalType":"uint256","name":"requestIndex","type":"uint256"}],"name":"FinalizeRequest","outputs":[],"stateMutability":"nonpayable","type":"function"},{"inputs":[],"name":"GetRequestCount","outputs":[{"internalType":"uint256","name":"","type":"uint256"}],"stateMutability":"view","type":"function"},{"inputs":[],"name":"GetSummary","outputs":[{"internalType":"uint256","name":"","type":"uint256"},{"internalType":"uint256","name":"","type":"uint256"},{"internalType":"uint256","name":"","type":"uint256"},{"internalType":"uint256","name":"","type":"uint256"},{"internalType":"address","name":"","type":"address"}],"stateMutability":"view","type":"function"},{"inputs":[{"internalType":"address","name":"","type":"address"}],"name":"contributers","outputs":[{"internalType":"bool","name":"","type":"bool"}],"stateMutability":"view","type":"function"},{"inputs":[],"name":"manager","outputs":[{"internalType":"address","name":"","type":"address"}],"stateMutability":"view","type":"function"},{"inputs":[],"name":"minimumContribution","outputs":[{"internalType":"uint256","name":"","type":"uint256"}],"stateMutability":"view","type":"function"},{"inputs":[],"name":"nextRequestKey","outputs":[{"internalType":"uint256","name":"","type":"uint256"}],"stateMutability":"view","type":"function"},{"inputs":[],"name":"numberOfContributers","outputs":[{"internalType":"uint256","name":"","type":"uint256"}],"stateMutability":"view","type":"function"},{"inputs":[{"internalType":"uint256","name":"","type":"uint256"}],"name":"requests","outputs":[{"internalType":"string","name":"description","type":"string"},{"internalType":"uint256","name":"value","type":"uint256"},{"internalType":"address","name":"recipient","type":"address"},{"internalType":"bool","name":"complete","type":"bool"},{"internalType":"uint256","name":"approvalCount","type":"uint256"}],"stateMutability":"view","type":"function"}],"evm":{"assembly":"    /* \"Campaign.sol\":436:2962  contract Campaign\r... */\n  mstore(0x40, 0x80)\n    /* \"Campaign.sol\":1033:1173  constructor(uint minimum, address campaignManager)\r... */\n  callvalue\n  dup1\n  iszero\n  tag_1\n  jumpi\n  0x00\n  dup1\n  revert\ntag_1:\n  pop\n  mload(0x40)\n  sub(codesize, bytecodeSize)\n  dup1\n  bytecodeSize\n  dup4\n  codecopy\n  dup2\n  dup2\n  add\n  0x40\n  mstore\n  dup2\n  add\n  swap1\n  tag_2\n  swap2\n  swap1\n  tag_3\n  jump\t// in\ntag_2:\n    /* \"Campaign.sol\":1110:1125  campaignManager */\n  dup1\n    /* \"Campaign.sol\":1100:1107  manager */\n  0x00\n  dup1\n    /* \"Campaign.sol\":1100:1125  manager = campaignManager */\n  0x0100\n  exp\n  dup2\n  sload\n  dup2\n  0xffffffffffffffffffffffffffffffffffffffff\n  mul\n  not\n  and\n  swap1\n  dup4\n  0xffffffffffffffffffffffffffffffffffffffff\n  and\n  mul\n  or\n  swap1\n  sstore\n  pop\n    /* \"Campaign.sol\":1158:1165  minimum */\n  dup2\n    /* \"Campaign.sol\":1136:1155  minimumContribution */\n  0x01\n    /* \"Campaign.sol\":1136:1165  minimumContribution = minimum */\n  dup2\n  swap1\n  sstore\n  pop\n    /* \"Campaign.sol\":1033:1173  constructor(uint minimum, address campaignManager)\r... */\n  pop\n  pop\n    /* \"Campaign.sol\":436:2962  contract Campaign\r... */\n  jump(tag_6)\n    /* \"#utility.yul\":7:150   */\ntag_8:\n  0x00\n    /* \"#utility.yul\":95:101   */\n  dup2\n    /* \"#utility.yul\":89:102   */\n  mload\n    /* \"#utility.yul\":80:102   */\n  swap1\n  pop\n    /* \"#utility.yul\":111:144   */\n  tag_10\n    /* \"#utility.yul\":138:143   */\n  dup2\n    /* \"#utility.yul\":111:144   */\n  tag_11\n  jump\t// in\ntag_10:\n    /* \"#utility.yul\":70:150   */\n  swap3\n  swap2\n  pop\n  pop\n  jump\t// out\n    /* \"#utility.yul\":156:299   */\ntag_12:\n  0x00\n    /* \"#utility.yul\":244:250   */\n  dup2\n    /* \"#utility.yul\":238:251   */\n  mload\n    /* \"#utility.yul\":229:251   */\n  swap1\n  pop\n    /* \"#utility.yul\":260:293   */\n  tag_14\n    /* \"#utility.yul\":287:292   */\n  dup2\n    /* \"#utility.yul\":260:293   */\n  tag_15\n  jump\t// in\ntag_14:\n    /* \"#utility.yul\":219:299   */\n  swap3\n  swap2\n  pop\n  pop\n  jump\t// out\n    /* \"#utility.yul\":305:745   */\ntag_3:\n  0x00\n  dup1\n    /* \"#utility.yul\":441:443   */\n  0x40\n    /* \"#utility.yul\":429:438   */\n  dup4\n    /* \"#utility.yul\":420:427   */\n  dup6\n    /* \"#utility.yul\":416:439   */\n  sub\n    /* \"#utility.yul\":412:444   */\n  slt\n    /* \"#utility.yul\":409:411   */\n  iszero\n  tag_17\n  jumpi\n    /* \"#utility.yul\":457:458   */\n  0x00\n    /* \"#utility.yul\":454:455   */\n  dup1\n    /* \"#utility.yul\":447:459   */\n  revert\n    /* \"#utility.yul\":409:411   */\ntag_17:\n    /* \"#utility.yul\":500:501   */\n  0x00\n    /* \"#utility.yul\":525:589   */\n  tag_18\n    /* \"#utility.yul\":581:588   */\n  dup6\n    /* \"#utility.yul\":572:578   */\n  dup3\n    /* \"#utility.yul\":561:570   */\n  dup7\n    /* \"#utility.yul\":557:579   */\n  add\n    /* \"#utility.yul\":525:589   */\n  tag_12\n  jump\t// in\ntag_18:\n    /* \"#utility.yul\":515:589   */\n  swap3\n  pop\n    /* \"#utility.yul\":471:599   */\n  pop\n    /* \"#utility.yul\":638:640   */\n  0x20\n    /* \"#utility.yul\":664:728   */\n  tag_19\n    /* \"#utility.yul\":720:727   */\n  dup6\n    /* \"#utility.yul\":711:717   */\n  dup3\n    /* \"#utility.yul\":700:709   */\n  dup7\n    /* \"#utility.yul\":696:718   */\n  add\n    /* \"#utility.yul\":664:728   */\n  tag_8\n  jump\t// in\ntag_19:\n    /* \"#utility.yul\":654:728   */\n  swap2\n  pop\n    /* \"#utility.yul\":609:738   */\n  pop\n    /* \"#utility.yul\":399:745   */\n  swap3\n  pop\n  swap3\n  swap1\n  pop\n  jump\t// out\n    /* \"#utility.yul\":751:847   */\ntag_20:\n  0x00\n    /* \"#utility.yul\":817:841   */\n  tag_22\n    /* \"#utility.yul\":835:840   */\n  dup3\n    /* \"#utility.yul\":817:841   */\n  tag_23\n  jump\t// in\ntag_22:\n    /* \"#utility.yul\":806:841   */\n  swap1\n  pop\n    /* \"#utility.yul\":796:847   */\n  swap2\n  swap1\n  pop\n  jump\t// out\n    /* \"#utility.yul\":853:979   */\ntag_23:\n  0x00\n    /* \"#utility.yul\":930:972   */\n  0xffffffffffffffffffffffffffffffffffffffff\n    /* \"#utility.yul\":923:928   */\n  dup3\n    /* \"#utility.yul\":919:973   */\n  and\n    /* \"#utility.yul\":908:973   */\n  swap1\n  pop\n    /* \"#utility.yul\":898:979   */\n  swap2\n  swap1\n  pop\n  jump\t// out\n    /* \"#utility.yul\":985:1062   */\ntag_25:\n  0x00\n    /* \"#utility.yul\":1051:1056   */\n  dup2\n    /* \"#utility.yul\":1040:1056   */\n  swap1\n  pop\n    /* \"#utility.yul\":1030:1062   */\n  swap2\n  swap1\n  pop\n  jump\t// out\n    /* \"#utility.yul\":1068:1190   */\ntag_11:\n    /* \"#utility.yul\":1141:1165   */\n  tag_28\n    /* \"#utility.yul\":1159:1164   */\n  dup2\n    /* \"#utility.yul\":1141:1165   */\n  tag_20\n  jump\t// in\ntag_28:\n    /* \"#utility.yul\":1134:1139   */\n  dup2\n    /* \"#utility.yul\":1131:1166   */\n  eq\n    /* \"#utility.yul\":1121:1123   */\n  tag_29\n  jumpi\n    /* \"#utility.yul\":1180:1181   */\n  0x00\n    /* \"#utility.yul\":1177:1178   */\n  dup1\n    /* \"#utility.yul\":1170:1182   */\n  revert\n    /* \"#utility.yul\":1121:1123   */\ntag_29:\n    /* \"#utility.yul\":1111:1190   */\n  pop\n  jump\t// out\n    /* \"#utility.yul\":1196:1318   */\ntag_15:\n    /* \"#utility.yul\":1269:1293   */\n  tag_31\n    /* \"#utility.yul\":1287:1292   */\n  dup2\n    /* \"#utility.yul\":1269:1293   */\n  tag_25\n  jump\t// in\ntag_31:\n    /* \"#utility.yul\":1262:1267   */\n  dup2\n    /* \"#utility.yul\":1259:1294   */\n  eq\n    /* \"#utility.yul\":1249:1251   */\n  tag_32\n  jumpi\n    /* \"#utility.yul\":1308:1309   */\n  0x00\n    /* \"#utility.yul\":1305:1306   */\n  dup1\n    /* \"#utility.yul\":1298:1310   */\n  revert\n    /* \"#utility.yul\":1249:1251   */\ntag_32:\n    /* \"#utility.yul\":1239:1318   */\n  pop\n  jump\t// out\n    /* \"Campaign.sol\":436:2962  contract Campaign\r... */\ntag_6:\n  dataSize(sub_0)\n  dup1\n  dataOffset(sub_0)\n  0x00\n  codecopy\n  0x00\n  return\nstop\n\nsub_0: assembly {\n        /* \"Campaign.sol\":436:2962  contract Campaign\r... */\n      mstore(0x40, 0x80)\n      jumpi(tag_1, lt(calldatasize, 0x04))\n      shr(0xe0, calldataload(0x00))\n      dup1\n      0x81d12c58\n      gt\n      tag_14\n      jumpi\n      dup1\n      0x81d12c58\n      eq\n      tag_8\n      jumpi\n      dup1\n      0x8ab1a3c4\n      eq\n      tag_9\n      jumpi\n      dup1\n      0x937e09b1\n      eq\n      tag_10\n      jumpi\n      dup1\n      0xb309a91a\n      eq\n      tag_11\n      jumpi\n      dup1\n      0xd8b67536\n      eq\n      tag_12\n      jumpi\n      dup1\n      0xff01fd81\n      eq\n      tag_13\n      jumpi\n      jump(tag_1)\n    tag_14:\n      dup1\n      0x0738ffcd\n      eq\n      tag_2\n      jumpi\n      dup1\n      0x19b889e2\n      eq\n      tag_3\n      jumpi\n      dup1\n      0x20dd3de7\n      eq\n      tag_4\n      jumpi\n      dup1\n      0x2e35ba37\n      eq\n      tag_5\n      jumpi\n      dup1\n      0x34b66460\n      eq\n      tag_6\n      jumpi\n      dup1\n      0x481c6a75\n      eq\n      tag_7\n      jumpi\n    tag_1:\n      0x00\n      dup1\n      revert\n        /* \"Campaign.sol\":2529:2953  function FinalizeRequest(uint requestIndex) public Restricted\r... */\n    tag_2:\n      callvalue\n      dup1\n      iszero\n      tag_15\n      jumpi\n      0x00\n      dup1\n      revert\n    tag_15:\n      pop\n      tag_16\n      0x04\n      dup1\n      calldatasize\n      sub\n      dup2\n      add\n      swap1\n      tag_17\n      swap2\n      swap1\n      tag_18\n      jump\t// in\n    tag_17:\n      tag_19\n      jump\t// in\n    tag_16:\n      stop\n        /* \"Campaign.sol\":1181:1454  function GetSummary() public view returns (uint, uint, uint, uint, address)\r... */\n    tag_3:\n      callvalue\n      dup1\n      iszero\n      tag_20\n      jumpi\n      0x00\n      dup1\n      revert\n    tag_20:\n      pop\n      tag_21\n      tag_22\n      jump\t// in\n    tag_21:\n      mload(0x40)\n      tag_23\n      swap6\n      swap5\n      swap4\n      swap3\n      swap2\n      swap1\n      tag_24\n      jump\t// in\n    tag_23:\n      mload(0x40)\n      dup1\n      swap2\n      sub\n      swap1\n      return\n        /* \"Campaign.sol\":751:783  uint public numberOfContributers */\n    tag_4:\n      callvalue\n      dup1\n      iszero\n      tag_25\n      jumpi\n      0x00\n      dup1\n      revert\n    tag_25:\n      pop\n      tag_26\n      tag_27\n      jump\t// in\n    tag_26:\n      mload(0x40)\n      tag_28\n      swap2\n      swap1\n      tag_29\n      jump\t// in\n    tag_28:\n      mload(0x40)\n      dup1\n      swap2\n      sub\n      swap1\n      return\n        /* \"Campaign.sol\":1462:1561  function GetRequestCount() public view returns (uint)\r... */\n    tag_5:\n      callvalue\n      dup1\n      iszero\n      tag_30\n      jumpi\n      0x00\n      dup1\n      revert\n    tag_30:\n      pop\n      tag_31\n      tag_32\n      jump\t// in\n    tag_31:\n      mload(0x40)\n      tag_33\n      swap2\n      swap1\n      tag_29\n      jump\t// in\n    tag_33:\n      mload(0x40)\n      dup1\n      swap2\n      sub\n      swap1\n      return\n        /* \"Campaign.sol\":790:834  mapping(address => bool) public contributers */\n    tag_6:\n      callvalue\n      dup1\n      iszero\n      tag_34\n      jumpi\n      0x00\n      dup1\n      revert\n    tag_34:\n      pop\n      tag_35\n      0x04\n      dup1\n      calldatasize\n      sub\n      dup2\n      add\n      swap1\n      tag_36\n      swap2\n      swap1\n      tag_37\n      jump\t// in\n    tag_36:\n      tag_38\n      jump\t// in\n    tag_35:\n      mload(0x40)\n      tag_39\n      swap2\n      swap1\n      tag_40\n      jump\t// in\n    tag_39:\n      mload(0x40)\n      dup1\n      swap2\n      sub\n      swap1\n      return\n        /* \"Campaign.sol\":678:700  address public manager */\n    tag_7:\n      callvalue\n      dup1\n      iszero\n      tag_41\n      jumpi\n      0x00\n      dup1\n      revert\n    tag_41:\n      pop\n      tag_42\n      tag_43\n      jump\t// in\n    tag_42:\n      mload(0x40)\n      tag_44\n      swap2\n      swap1\n      tag_45\n      jump\t// in\n    tag_44:\n      mload(0x40)\n      dup1\n      swap2\n      sub\n      swap1\n      return\n        /* \"Campaign.sol\":880:920  mapping(uint => Request) public requests */\n    tag_8:\n      callvalue\n      dup1\n      iszero\n      tag_46\n      jumpi\n      0x00\n      dup1\n      revert\n    tag_46:\n      pop\n      tag_47\n      0x04\n      dup1\n      calldatasize\n      sub\n      dup2\n      add\n      swap1\n      tag_48\n      swap2\n      swap1\n      tag_18\n      jump\t// in\n    tag_48:\n      tag_49\n      jump\t// in\n    tag_47:\n      mload(0x40)\n      tag_50\n      swap6\n      swap5\n      swap4\n      swap3\n      swap2\n      swap1\n      tag_51\n      jump\t// in\n    tag_50:\n      mload(0x40)\n      dup1\n      swap2\n      sub\n      swap1\n      return\n        /* \"Campaign.sol\":1773:2188  function CreateRequest(string memory description, uint value, address recipient) public Restricted\r... */\n    tag_9:\n      callvalue\n      dup1\n      iszero\n      tag_52\n      jumpi\n      0x00\n      dup1\n      revert\n    tag_52:\n      pop\n      tag_53\n      0x04\n      dup1\n      calldatasize\n      sub\n      dup2\n      add\n      swap1\n      tag_54\n      swap2\n      swap1\n      tag_55\n      jump\t// in\n    tag_54:\n      tag_56\n      jump\t// in\n    tag_53:\n      stop\n        /* \"Campaign.sol\":707:738  uint public minimumContribution */\n    tag_10:\n      callvalue\n      dup1\n      iszero\n      tag_57\n      jumpi\n      0x00\n      dup1\n      revert\n    tag_57:\n      pop\n      tag_58\n      tag_59\n      jump\t// in\n    tag_58:\n      mload(0x40)\n      tag_60\n      swap2\n      swap1\n      tag_29\n      jump\t// in\n    tag_60:\n      mload(0x40)\n      dup1\n      swap2\n      sub\n      swap1\n      return\n        /* \"Campaign.sol\":1573:1761  function Contribute() public payable \r... */\n    tag_11:\n      tag_61\n      tag_62\n      jump\t// in\n    tag_61:\n      stop\n        /* \"Campaign.sol\":847:873  uint public nextRequestKey */\n    tag_12:\n      callvalue\n      dup1\n      iszero\n      tag_63\n      jumpi\n      0x00\n      dup1\n      revert\n    tag_63:\n      pop\n      tag_64\n      tag_65\n      jump\t// in\n    tag_64:\n      mload(0x40)\n      tag_66\n      swap2\n      swap1\n      tag_29\n      jump\t// in\n    tag_66:\n      mload(0x40)\n      dup1\n      swap2\n      sub\n      swap1\n      return\n        /* \"Campaign.sol\":2200:2517  function ApproveRequest(uint requestIndex) public\r... */\n    tag_13:\n      callvalue\n      dup1\n      iszero\n      tag_67\n      jumpi\n      0x00\n      dup1\n      revert\n    tag_67:\n      pop\n      tag_68\n      0x04\n      dup1\n      calldatasize\n      sub\n      dup2\n      add\n      swap1\n      tag_69\n      swap2\n      swap1\n      tag_18\n      jump\t// in\n    tag_69:\n      tag_70\n      jump\t// in\n    tag_68:\n      stop\n        /* \"Campaign.sol\":2529:2953  function FinalizeRequest(uint requestIndex) public Restricted\r... */\n    tag_19:\n        /* \"Campaign.sol\":993:1000  manager */\n      0x00\n      dup1\n      sload\n      swap1\n      0x0100\n      exp\n      swap1\n      div\n      0xffffffffffffffffffffffffffffffffffffffff\n      and\n        /* \"Campaign.sol\":979:1000  msg.sender == manager */\n      0xffffffffffffffffffffffffffffffffffffffff\n      and\n        /* \"Campaign.sol\":979:989  msg.sender */\n      caller\n        /* \"Campaign.sol\":979:1000  msg.sender == manager */\n      0xffffffffffffffffffffffffffffffffffffffff\n      and\n      eq\n        /* \"Campaign.sol\":971:1001  require(msg.sender == manager) */\n      tag_72\n      jumpi\n      0x00\n      dup1\n      revert\n    tag_72:\n        /* \"Campaign.sol\":2607:2630  Request storage request */\n      0x00\n        /* \"Campaign.sol\":2633:2641  requests */\n      0x05\n        /* \"Campaign.sol\":2633:2655  requests[requestIndex] */\n      0x00\n        /* \"Campaign.sol\":2642:2654  requestIndex */\n      dup4\n        /* \"Campaign.sol\":2633:2655  requests[requestIndex] */\n      dup2\n      mstore\n      0x20\n      add\n      swap1\n      dup2\n      mstore\n      0x20\n      add\n      0x00\n      keccak256\n        /* \"Campaign.sol\":2607:2655  Request storage request = requests[requestIndex] */\n      swap1\n      pop\n        /* \"Campaign.sol\":2675:2682  request */\n      dup1\n        /* \"Campaign.sol\":2675:2691  request.complete */\n      0x02\n      add\n      0x14\n      swap1\n      sload\n      swap1\n      0x0100\n      exp\n      swap1\n      div\n      0xff\n      and\n        /* \"Campaign.sol\":2674:2691  !request.complete */\n      iszero\n        /* \"Campaign.sol\":2666:2692  require(!request.complete) */\n      tag_74\n      jumpi\n      0x00\n      dup1\n      revert\n    tag_74:\n        /* \"Campaign.sol\":2769:2770  2 */\n      0x02\n        /* \"Campaign.sol\":2746:2766  numberOfContributers */\n      dup1\n      sload\n        /* \"Campaign.sol\":2746:2770  numberOfContributers / 2 */\n      tag_75\n      swap2\n      swap1\n      tag_76\n      jump\t// in\n    tag_75:\n        /* \"Campaign.sol\":2721:2728  request */\n      dup2\n        /* \"Campaign.sol\":2721:2742  request.approvalCount */\n      0x03\n      add\n      sload\n        /* \"Campaign.sol\":2721:2771  request.approvalCount > (numberOfContributers / 2) */\n      gt\n        /* \"Campaign.sol\":2713:2772  require(request.approvalCount > (numberOfContributers / 2)) */\n      tag_77\n      jumpi\n      0x00\n      dup1\n      revert\n    tag_77:\n        /* \"Campaign.sol\":2816:2823  request */\n      dup1\n        /* \"Campaign.sol\":2816:2829  request.value */\n      0x01\n      add\n      sload\n        /* \"Campaign.sol\":2791:2812  address(this).balance */\n      selfbalance\n        /* \"Campaign.sol\":2791:2829  address(this).balance >= request.value */\n      lt\n      iszero\n        /* \"Campaign.sol\":2783:2830  require(address(this).balance >= request.value) */\n      tag_78\n      jumpi\n      0x00\n      dup1\n      revert\n    tag_78:\n        /* \"Campaign.sol\":2859:2866  request */\n      dup1\n        /* \"Campaign.sol\":2859:2876  request.recipient */\n      0x02\n      add\n      0x00\n      swap1\n      sload\n      swap1\n      0x0100\n      exp\n      swap1\n      div\n      0xffffffffffffffffffffffffffffffffffffffff\n      and\n        /* \"Campaign.sol\":2851:2886  payable(request.recipient).transfer */\n      0xffffffffffffffffffffffffffffffffffffffff\n      and\n        /* \"Campaign.sol\":2851:2901  payable(request.recipient).transfer(request.value) */\n      0x08fc\n        /* \"Campaign.sol\":2887:2894  request */\n      dup3\n        /* \"Campaign.sol\":2887:2900  request.value */\n      0x01\n      add\n      sload\n        /* \"Campaign.sol\":2851:2901  payable(request.recipient).transfer(request.value) */\n      swap1\n      dup2\n      iszero\n      mul\n      swap1\n      mload(0x40)\n      0x00\n      mload(0x40)\n      dup1\n      dup4\n      sub\n      dup2\n      dup6\n      dup9\n      dup9\n      call\n      swap4\n      pop\n      pop\n      pop\n      pop\n      iszero\n      dup1\n      iszero\n      tag_80\n      jumpi\n      returndatasize\n      0x00\n      dup1\n      returndatacopy\n      revert(0x00, returndatasize)\n    tag_80:\n      pop\n        /* \"Campaign.sol\":2941:2945  true */\n      0x01\n        /* \"Campaign.sol\":2922:2929  request */\n      dup2\n        /* \"Campaign.sol\":2922:2938  request.complete */\n      0x02\n      add\n      0x14\n        /* \"Campaign.sol\":2922:2945  request.complete = true */\n      0x0100\n      exp\n      dup2\n      sload\n      dup2\n      0xff\n      mul\n      not\n      and\n      swap1\n      dup4\n      iszero\n      iszero\n      mul\n      or\n      swap1\n      sstore\n      pop\n        /* \"Campaign.sol\":1012:1013  _ */\n      pop\n        /* \"Campaign.sol\":2529:2953  function FinalizeRequest(uint requestIndex) public Restricted\r... */\n      pop\n      jump\t// out\n        /* \"Campaign.sol\":1181:1454  function GetSummary() public view returns (uint, uint, uint, uint, address)\r... */\n    tag_22:\n        /* \"Campaign.sol\":1224:1228  uint */\n      0x00\n        /* \"Campaign.sol\":1230:1234  uint */\n      dup1\n        /* \"Campaign.sol\":1236:1240  uint */\n      0x00\n        /* \"Campaign.sol\":1242:1246  uint */\n      dup1\n        /* \"Campaign.sol\":1248:1255  address */\n      0x00\n        /* \"Campaign.sol\":1294:1313  minimumContribution */\n      sload(0x01)\n        /* \"Campaign.sol\":1328:1349  address(this).balance */\n      selfbalance\n        /* \"Campaign.sol\":1364:1378  nextRequestKey */\n      sload(0x04)\n        /* \"Campaign.sol\":1393:1413  numberOfContributers */\n      sload(0x02)\n        /* \"Campaign.sol\":1428:1435  manager */\n      0x00\n      dup1\n      sload\n      swap1\n      0x0100\n      exp\n      swap1\n      div\n      0xffffffffffffffffffffffffffffffffffffffff\n      and\n        /* \"Campaign.sol\":1273:1446  return(\r... */\n      swap5\n      pop\n      swap5\n      pop\n      swap5\n      pop\n      swap5\n      pop\n      swap5\n      pop\n        /* \"Campaign.sol\":1181:1454  function GetSummary() public view returns (uint, uint, uint, uint, address)\r... */\n      swap1\n      swap2\n      swap3\n      swap4\n      swap5\n      jump\t// out\n        /* \"Campaign.sol\":751:783  uint public numberOfContributers */\n    tag_27:\n      sload(0x02)\n      dup2\n      jump\t// out\n        /* \"Campaign.sol\":1462:1561  function GetRequestCount() public view returns (uint)\r... */\n    tag_32:\n        /* \"Campaign.sol\":1510:1514  uint */\n      0x00\n        /* \"Campaign.sol\":1539:1553  nextRequestKey */\n      sload(0x04)\n        /* \"Campaign.sol\":1532:1553  return nextRequestKey */\n      swap1\n      pop\n        /* \"Campaign.sol\":1462:1561  function GetRequestCount() public view returns (uint)\r... */\n      swap1\n      jump\t// out\n        /* \"Campaign.sol\":790:834  mapping(address => bool) public contributers */\n    tag_38:\n      mstore(0x20, 0x03)\n      dup1\n      0x00\n      mstore\n      keccak256(0x00, 0x40)\n      0x00\n      swap2\n      pop\n      sload\n      swap1\n      0x0100\n      exp\n      swap1\n      div\n      0xff\n      and\n      dup2\n      jump\t// out\n        /* \"Campaign.sol\":678:700  address public manager */\n    tag_43:\n      0x00\n      dup1\n      sload\n      swap1\n      0x0100\n      exp\n      swap1\n      div\n      0xffffffffffffffffffffffffffffffffffffffff\n      and\n      dup2\n      jump\t// out\n        /* \"Campaign.sol\":880:920  mapping(uint => Request) public requests */\n    tag_49:\n      mstore(0x20, 0x05)\n      dup1\n      0x00\n      mstore\n      keccak256(0x00, 0x40)\n      0x00\n      swap2\n      pop\n      swap1\n      pop\n      dup1\n      0x00\n      add\n      dup1\n      sload\n      tag_83\n      swap1\n      tag_84\n      jump\t// in\n    tag_83:\n      dup1\n      0x1f\n      add\n      0x20\n      dup1\n      swap2\n      div\n      mul\n      0x20\n      add\n      mload(0x40)\n      swap1\n      dup2\n      add\n      0x40\n      mstore\n      dup1\n      swap3\n      swap2\n      swap1\n      dup2\n      dup2\n      mstore\n      0x20\n      add\n      dup3\n      dup1\n      sload\n      tag_85\n      swap1\n      tag_84\n      jump\t// in\n    tag_85:\n      dup1\n      iszero\n      tag_86\n      jumpi\n      dup1\n      0x1f\n      lt\n      tag_87\n      jumpi\n      0x0100\n      dup1\n      dup4\n      sload\n      div\n      mul\n      dup4\n      mstore\n      swap2\n      0x20\n      add\n      swap2\n      jump(tag_86)\n    tag_87:\n      dup3\n      add\n      swap2\n      swap1\n      0x00\n      mstore\n      keccak256(0x00, 0x20)\n      swap1\n    tag_88:\n      dup2\n      sload\n      dup2\n      mstore\n      swap1\n      0x01\n      add\n      swap1\n      0x20\n      add\n      dup1\n      dup4\n      gt\n      tag_88\n      jumpi\n      dup3\n      swap1\n      sub\n      0x1f\n      and\n      dup3\n      add\n      swap2\n    tag_86:\n      pop\n      pop\n      pop\n      pop\n      pop\n      swap1\n      dup1\n      0x01\n      add\n      sload\n      swap1\n      dup1\n      0x02\n      add\n      0x00\n      swap1\n      sload\n      swap1\n      0x0100\n      exp\n      swap1\n      div\n      0xffffffffffffffffffffffffffffffffffffffff\n      and\n      swap1\n      dup1\n      0x02\n      add\n      0x14\n      swap1\n      sload\n      swap1\n      0x0100\n      exp\n      swap1\n      div\n      0xff\n      and\n      swap1\n      dup1\n      0x03\n      add\n      sload\n      swap1\n      pop\n      dup6\n      jump\t// out\n        /* \"Campaign.sol\":1773:2188  function CreateRequest(string memory description, uint value, address recipient) public Restricted\r... */\n    tag_56:\n        /* \"Campaign.sol\":993:1000  manager */\n      0x00\n      dup1\n      sload\n      swap1\n      0x0100\n      exp\n      swap1\n      div\n      0xffffffffffffffffffffffffffffffffffffffff\n      and\n        /* \"Campaign.sol\":979:1000  msg.sender == manager */\n      0xffffffffffffffffffffffffffffffffffffffff\n      and\n        /* \"Campaign.sol\":979:989  msg.sender */\n      caller\n        /* \"Campaign.sol\":979:1000  msg.sender == manager */\n      0xffffffffffffffffffffffffffffffffffffffff\n      and\n      eq\n        /* \"Campaign.sol\":971:1001  require(msg.sender == manager) */\n      tag_90\n      jumpi\n      0x00\n      dup1\n      revert\n    tag_90:\n        /* \"Campaign.sol\":1888:1914  Request storage newRequest */\n      0x00\n        /* \"Campaign.sol\":1917:1925  requests */\n      0x05\n        /* \"Campaign.sol\":1917:1941  requests[nextRequestKey] */\n      0x00\n        /* \"Campaign.sol\":1926:1940  nextRequestKey */\n      sload(0x04)\n        /* \"Campaign.sol\":1917:1941  requests[nextRequestKey] */\n      dup2\n      mstore\n      0x20\n      add\n      swap1\n      dup2\n      mstore\n      0x20\n      add\n      0x00\n      keccak256\n        /* \"Campaign.sol\":1888:1941  Request storage newRequest = requests[nextRequestKey] */\n      swap1\n      pop\n        /* \"Campaign.sol\":1977:1988  description */\n      dup4\n        /* \"Campaign.sol\":1952:1962  newRequest */\n      dup2\n        /* \"Campaign.sol\":1952:1974  newRequest.description */\n      0x00\n      add\n        /* \"Campaign.sol\":1952:1988  newRequest.description = description */\n      swap1\n      dup1\n      mload\n      swap1\n      0x20\n      add\n      swap1\n      tag_92\n      swap3\n      swap2\n      swap1\n      tag_93\n      jump\t// in\n    tag_92:\n      pop\n        /* \"Campaign.sol\":2018:2023  value */\n      dup3\n        /* \"Campaign.sol\":1999:2009  newRequest */\n      dup2\n        /* \"Campaign.sol\":1999:2015  newRequest.value */\n      0x01\n      add\n        /* \"Campaign.sol\":1999:2023  newRequest.value = value */\n      dup2\n      swap1\n      sstore\n      pop\n        /* \"Campaign.sol\":2057:2066  recipient */\n      dup2\n        /* \"Campaign.sol\":2034:2044  newRequest */\n      dup2\n        /* \"Campaign.sol\":2034:2054  newRequest.recipient */\n      0x02\n      add\n      0x00\n        /* \"Campaign.sol\":2034:2066  newRequest.recipient = recipient */\n      0x0100\n      exp\n      dup2\n      sload\n      dup2\n      0xffffffffffffffffffffffffffffffffffffffff\n      mul\n      not\n      and\n      swap1\n      dup4\n      0xffffffffffffffffffffffffffffffffffffffff\n      and\n      mul\n      or\n      swap1\n      sstore\n      pop\n        /* \"Campaign.sol\":2099:2104  false */\n      0x00\n        /* \"Campaign.sol\":2077:2087  newRequest */\n      dup2\n        /* \"Campaign.sol\":2077:2096  newRequest.complete */\n      0x02\n      add\n      0x14\n        /* \"Campaign.sol\":2077:2104  newRequest.complete = false */\n      0x0100\n      exp\n      dup2\n      sload\n      dup2\n      0xff\n      mul\n      not\n      and\n      swap1\n      dup4\n      iszero\n      iszero\n      mul\n      or\n      swap1\n      sstore\n      pop\n        /* \"Campaign.sol\":2142:2143  0 */\n      0x00\n        /* \"Campaign.sol\":2115:2125  newRequest */\n      dup2\n        /* \"Campaign.sol\":2115:2139  newRequest.approvalCount */\n      0x03\n      add\n        /* \"Campaign.sol\":2115:2143  newRequest.approvalCount = 0 */\n      dup2\n      swap1\n      sstore\n      pop\n        /* \"Campaign.sol\":2164:2178  nextRequestKey */\n      0x04\n      0x00\n        /* \"Campaign.sol\":2164:2180  nextRequestKey++ */\n      dup2\n      sload\n      dup1\n      swap3\n      swap2\n      swap1\n      tag_94\n      swap1\n      tag_95\n      jump\t// in\n    tag_94:\n      swap2\n      swap1\n      pop\n      sstore\n      pop\n        /* \"Campaign.sol\":1012:1013  _ */\n      pop\n        /* \"Campaign.sol\":1773:2188  function CreateRequest(string memory description, uint value, address recipient) public Restricted\r... */\n      pop\n      pop\n      pop\n      jump\t// out\n        /* \"Campaign.sol\":707:738  uint public minimumContribution */\n    tag_59:\n      sload(0x01)\n      dup2\n      jump\t// out\n        /* \"Campaign.sol\":1573:1761  function Contribute() public payable \r... */\n    tag_62:\n        /* \"Campaign.sol\":1648:1667  minimumContribution */\n      sload(0x01)\n        /* \"Campaign.sol\":1635:1644  msg.value */\n      callvalue\n        /* \"Campaign.sol\":1635:1667  msg.value >= minimumContribution */\n      lt\n      iszero\n        /* \"Campaign.sol\":1627:1668  require(msg.value >= minimumContribution) */\n      tag_97\n      jumpi\n      0x00\n      dup1\n      revert\n    tag_97:\n        /* \"Campaign.sol\":1716:1720  true */\n      0x01\n        /* \"Campaign.sol\":1689:1701  contributers */\n      0x03\n        /* \"Campaign.sol\":1689:1713  contributers[msg.sender] */\n      0x00\n        /* \"Campaign.sol\":1702:1712  msg.sender */\n      caller\n        /* \"Campaign.sol\":1689:1713  contributers[msg.sender] */\n      0xffffffffffffffffffffffffffffffffffffffff\n      and\n      0xffffffffffffffffffffffffffffffffffffffff\n      and\n      dup2\n      mstore\n      0x20\n      add\n      swap1\n      dup2\n      mstore\n      0x20\n      add\n      0x00\n      keccak256\n      0x00\n        /* \"Campaign.sol\":1689:1720  contributers[msg.sender] = true */\n      0x0100\n      exp\n      dup2\n      sload\n      dup2\n      0xff\n      mul\n      not\n      and\n      swap1\n      dup4\n      iszero\n      iszero\n      mul\n      or\n      swap1\n      sstore\n      pop\n        /* \"Campaign.sol\":1731:1751  numberOfContributers */\n      0x02\n      0x00\n        /* \"Campaign.sol\":1731:1753  numberOfContributers++ */\n      dup2\n      sload\n      dup1\n      swap3\n      swap2\n      swap1\n      tag_98\n      swap1\n      tag_95\n      jump\t// in\n    tag_98:\n      swap2\n      swap1\n      pop\n      sstore\n      pop\n        /* \"Campaign.sol\":1573:1761  function Contribute() public payable \r... */\n      jump\t// out\n        /* \"Campaign.sol\":847:873  uint public nextRequestKey */\n    tag_65:\n      sload(0x04)\n      dup2\n      jump\t// out\n        /* \"Campaign.sol\":2200:2517  function ApproveRequest(uint requestIndex) public\r... */\n    tag_70:\n        /* \"Campaign.sol\":2274:2286  contributers */\n      0x03\n        /* \"Campaign.sol\":2274:2298  contributers[msg.sender] */\n      0x00\n        /* \"Campaign.sol\":2287:2297  msg.sender */\n      caller\n        /* \"Campaign.sol\":2274:2298  contributers[msg.sender] */\n      0xffffffffffffffffffffffffffffffffffffffff\n      and\n      0xffffffffffffffffffffffffffffffffffffffff\n      and\n      dup2\n      mstore\n      0x20\n      add\n      swap1\n      dup2\n      mstore\n      0x20\n      add\n      0x00\n      keccak256\n      0x00\n      swap1\n      sload\n      swap1\n      0x0100\n      exp\n      swap1\n      div\n      0xff\n      and\n        /* \"Campaign.sol\":2266:2299  require(contributers[msg.sender]) */\n      tag_100\n      jumpi\n      0x00\n      dup1\n      revert\n    tag_100:\n        /* \"Campaign.sol\":2320:2343  Request storage request */\n      0x00\n        /* \"Campaign.sol\":2346:2354  requests */\n      0x05\n        /* \"Campaign.sol\":2346:2368  requests[requestIndex] */\n      0x00\n        /* \"Campaign.sol\":2355:2367  requestIndex */\n      dup4\n        /* \"Campaign.sol\":2346:2368  requests[requestIndex] */\n      dup2\n      mstore\n      0x20\n      add\n      swap1\n      dup2\n      mstore\n      0x20\n      add\n      0x00\n      keccak256\n        /* \"Campaign.sol\":2320:2368  Request storage request = requests[requestIndex] */\n      swap1\n      pop\n        /* \"Campaign.sol\":2388:2395  request */\n      dup1\n        /* \"Campaign.sol\":2388:2405  request.approvals */\n      0x04\n      add\n        /* \"Campaign.sol\":2388:2417  request.approvals[msg.sender] */\n      0x00\n        /* \"Campaign.sol\":2406:2416  msg.sender */\n      caller\n        /* \"Campaign.sol\":2388:2417  request.approvals[msg.sender] */\n      0xffffffffffffffffffffffffffffffffffffffff\n      and\n      0xffffffffffffffffffffffffffffffffffffffff\n      and\n      dup2\n      mstore\n      0x20\n      add\n      swap1\n      dup2\n      mstore\n      0x20\n      add\n      0x00\n      keccak256\n      0x00\n      swap1\n      sload\n      swap1\n      0x0100\n      exp\n      swap1\n      div\n      0xff\n      and\n        /* \"Campaign.sol\":2387:2417  !request.approvals[msg.sender] */\n      iszero\n        /* \"Campaign.sol\":2379:2418  require(!request.approvals[msg.sender]) */\n      tag_101\n      jumpi\n      0x00\n      dup1\n      revert\n    tag_101:\n        /* \"Campaign.sol\":2471:2475  true */\n      0x01\n        /* \"Campaign.sol\":2439:2446  request */\n      dup2\n        /* \"Campaign.sol\":2439:2456  request.approvals */\n      0x04\n      add\n        /* \"Campaign.sol\":2439:2468  request.approvals[msg.sender] */\n      0x00\n        /* \"Campaign.sol\":2457:2467  msg.sender */\n      caller\n        /* \"Campaign.sol\":2439:2468  request.approvals[msg.sender] */\n      0xffffffffffffffffffffffffffffffffffffffff\n      and\n      0xffffffffffffffffffffffffffffffffffffffff\n      and\n      dup2\n      mstore\n      0x20\n      add\n      swap1\n      dup2\n      mstore\n      0x20\n      add\n      0x00\n      keccak256\n      0x00\n        /* \"Campaign.sol\":2439:2475  request.approvals[msg.sender] = true */\n      0x0100\n      exp\n      dup2\n      sload\n      dup2\n      0xff\n      mul\n      not\n      and\n      swap1\n      dup4\n      iszero\n      iszero\n      mul\n      or\n      swap1\n      sstore\n      pop\n        /* \"Campaign.sol\":2486:2493  request */\n      dup1\n        /* \"Campaign.sol\":2486:2507  request.approvalCount */\n      0x03\n      add\n      0x00\n        /* \"Campaign.sol\":2486:2509  request.approvalCount++ */\n      dup2\n      sload\n      dup1\n      swap3\n      swap2\n      swap1\n      tag_102\n      swap1\n      tag_95\n      jump\t// in\n    tag_102:\n      swap2\n      swap1\n      pop\n      sstore\n      pop\n        /* \"Campaign.sol\":2200:2517  function ApproveRequest(uint requestIndex) public\r... */\n      pop\n      pop\n      jump\t// out\n    tag_93:\n      dup3\n      dup1\n      sload\n      tag_103\n      swap1\n      tag_84\n      jump\t// in\n    tag_103:\n      swap1\n      0x00\n      mstore\n      keccak256(0x00, 0x20)\n      swap1\n      0x1f\n      add\n      0x20\n      swap1\n      div\n      dup2\n      add\n      swap3\n      dup3\n      tag_105\n      jumpi\n      0x00\n      dup6\n      sstore\n      jump(tag_104)\n    tag_105:\n      dup3\n      0x1f\n      lt\n      tag_106\n      jumpi\n      dup1\n      mload\n      not(0xff)\n      and\n      dup4\n      dup1\n      add\n      or\n      dup6\n      sstore\n      jump(tag_104)\n    tag_106:\n      dup3\n      dup1\n      add\n      0x01\n      add\n      dup6\n      sstore\n      dup3\n      iszero\n      tag_104\n      jumpi\n      swap2\n      dup3\n      add\n    tag_107:\n      dup3\n      dup2\n      gt\n      iszero\n      tag_108\n      jumpi\n      dup3\n      mload\n      dup3\n      sstore\n      swap2\n      0x20\n      add\n      swap2\n      swap1\n      0x01\n      add\n      swap1\n      jump(tag_107)\n    tag_108:\n    tag_104:\n      pop\n      swap1\n      pop\n      tag_109\n      swap2\n      swap1\n      tag_110\n      jump\t// in\n    tag_109:\n      pop\n      swap1\n      jump\t// out\n    tag_110:\n    tag_111:\n      dup1\n      dup3\n      gt\n      iszero\n      tag_112\n      jumpi\n      0x00\n      dup2\n      0x00\n      swap1\n      sstore\n      pop\n      0x01\n      add\n      jump(tag_111)\n    tag_112:\n      pop\n      swap1\n      jump\t// out\n        /* \"#utility.yul\":7:351   */\n    tag_114:\n      0x00\n        /* \"#utility.yul\":110:175   */\n      tag_116\n        /* \"#utility.yul\":125:174   */\n      tag_117\n        /* \"#utility.yul\":167:173   */\n      dup5\n        /* \"#utility.yul\":125:174   */\n      tag_118\n      jump\t// in\n    tag_117:\n        /* \"#utility.yul\":110:175   */\n      tag_119\n      jump\t// in\n    tag_116:\n        /* \"#utility.yul\":101:175   */\n      swap1\n      pop\n        /* \"#utility.yul\":198:204   */\n      dup3\n        /* \"#utility.yul\":191:196   */\n      dup2\n        /* \"#utility.yul\":184:205   */\n      mstore\n        /* \"#utility.yul\":236:240   */\n      0x20\n        /* \"#utility.yul\":229:234   */\n      dup2\n        /* \"#utility.yul\":225:241   */\n      add\n        /* \"#utility.yul\":274:277   */\n      dup5\n        /* \"#utility.yul\":265:271   */\n      dup5\n        /* \"#utility.yul\":260:263   */\n      dup5\n        /* \"#utility.yul\":256:272   */\n      add\n        /* \"#utility.yul\":253:278   */\n      gt\n        /* \"#utility.yul\":250:252   */\n      iszero\n      tag_120\n      jumpi\n        /* \"#utility.yul\":291:292   */\n      0x00\n        /* \"#utility.yul\":288:289   */\n      dup1\n        /* \"#utility.yul\":281:293   */\n      revert\n        /* \"#utility.yul\":250:252   */\n    tag_120:\n        /* \"#utility.yul\":304:345   */\n      tag_121\n        /* \"#utility.yul\":338:344   */\n      dup5\n        /* \"#utility.yul\":333:336   */\n      dup3\n        /* \"#utility.yul\":328:331   */\n      dup6\n        /* \"#utility.yul\":304:345   */\n      tag_122\n      jump\t// in\n    tag_121:\n        /* \"#utility.yul\":91:351   */\n      pop\n      swap4\n      swap3\n      pop\n      pop\n      pop\n      jump\t// out\n        /* \"#utility.yul\":357:496   */\n    tag_123:\n      0x00\n        /* \"#utility.yul\":441:447   */\n      dup2\n        /* \"#utility.yul\":428:448   */\n      calldataload\n        /* \"#utility.yul\":419:448   */\n      swap1\n      pop\n        /* \"#utility.yul\":457:490   */\n      tag_125\n        /* \"#utility.yul\":484:489   */\n      dup2\n        /* \"#utility.yul\":457:490   */\n      tag_126\n      jump\t// in\n    tag_125:\n        /* \"#utility.yul\":409:496   */\n      swap3\n      swap2\n      pop\n      pop\n      jump\t// out\n        /* \"#utility.yul\":516:789   */\n    tag_127:\n      0x00\n        /* \"#utility.yul\":621:624   */\n      dup3\n        /* \"#utility.yul\":614:618   */\n      0x1f\n        /* \"#utility.yul\":606:612   */\n      dup4\n        /* \"#utility.yul\":602:619   */\n      add\n        /* \"#utility.yul\":598:625   */\n      slt\n        /* \"#utility.yul\":588:590   */\n      tag_129\n      jumpi\n        /* \"#utility.yul\":639:640   */\n      0x00\n        /* \"#utility.yul\":636:637   */\n      dup1\n        /* \"#utility.yul\":629:641   */\n      revert\n        /* \"#utility.yul\":588:590   */\n    tag_129:\n        /* \"#utility.yul\":679:685   */\n      dup2\n        /* \"#utility.yul\":666:686   */\n      calldataload\n        /* \"#utility.yul\":704:783   */\n      tag_130\n        /* \"#utility.yul\":779:782   */\n      dup5\n        /* \"#utility.yul\":771:777   */\n      dup3\n        /* \"#utility.yul\":764:768   */\n      0x20\n        /* \"#utility.yul\":756:762   */\n      dup7\n        /* \"#utility.yul\":752:769   */\n      add\n        /* \"#utility.yul\":704:783   */\n      tag_114\n      jump\t// in\n    tag_130:\n        /* \"#utility.yul\":695:783   */\n      swap2\n      pop\n        /* \"#utility.yul\":578:789   */\n      pop\n      swap3\n      swap2\n      pop\n      pop\n      jump\t// out\n        /* \"#utility.yul\":795:934   */\n    tag_131:\n      0x00\n        /* \"#utility.yul\":879:885   */\n      dup2\n        /* \"#utility.yul\":866:886   */\n      calldataload\n        /* \"#utility.yul\":857:886   */\n      swap1\n      pop\n        /* \"#utility.yul\":895:928   */\n      tag_133\n        /* \"#utility.yul\":922:927   */\n      dup2\n        /* \"#utility.yul\":895:928   */\n      tag_134\n      jump\t// in\n    tag_133:\n        /* \"#utility.yul\":847:934   */\n      swap3\n      swap2\n      pop\n      pop\n      jump\t// out\n        /* \"#utility.yul\":940:1202   */\n    tag_37:\n      0x00\n        /* \"#utility.yul\":1048:1050   */\n      0x20\n        /* \"#utility.yul\":1036:1045   */\n      dup3\n        /* \"#utility.yul\":1027:1034   */\n      dup5\n        /* \"#utility.yul\":1023:1046   */\n      sub\n        /* \"#utility.yul\":1019:1051   */\n      slt\n        /* \"#utility.yul\":1016:1018   */\n      iszero\n      tag_136\n      jumpi\n        /* \"#utility.yul\":1064:1065   */\n      0x00\n        /* \"#utility.yul\":1061:1062   */\n      dup1\n        /* \"#utility.yul\":1054:1066   */\n      revert\n        /* \"#utility.yul\":1016:1018   */\n    tag_136:\n        /* \"#utility.yul\":1107:1108   */\n      0x00\n        /* \"#utility.yul\":1132:1185   */\n      tag_137\n        /* \"#utility.yul\":1177:1184   */\n      dup5\n        /* \"#utility.yul\":1168:1174   */\n      dup3\n        /* \"#utility.yul\":1157:1166   */\n      dup6\n        /* \"#utility.yul\":1153:1175   */\n      add\n        /* \"#utility.yul\":1132:1185   */\n      tag_123\n      jump\t// in\n    tag_137:\n        /* \"#utility.yul\":1122:1185   */\n      swap2\n      pop\n        /* \"#utility.yul\":1078:1195   */\n      pop\n        /* \"#utility.yul\":1006:1202   */\n      swap3\n      swap2\n      pop\n      pop\n      jump\t// out\n        /* \"#utility.yul\":1208:1873   */\n    tag_55:\n      0x00\n      dup1\n      0x00\n        /* \"#utility.yul\":1360:1362   */\n      0x60\n        /* \"#utility.yul\":1348:1357   */\n      dup5\n        /* \"#utility.yul\":1339:1346   */\n      dup7\n        /* \"#utility.yul\":1335:1358   */\n      sub\n        /* \"#utility.yul\":1331:1363   */\n      slt\n        /* \"#utility.yul\":1328:1330   */\n      iszero\n      tag_139\n      jumpi\n        /* \"#utility.yul\":1376:1377   */\n      0x00\n        /* \"#utility.yul\":1373:1374   */\n      dup1\n        /* \"#utility.yul\":1366:1378   */\n      revert\n        /* \"#utility.yul\":1328:1330   */\n    tag_139:\n        /* \"#utility.yul\":1447:1448   */\n      0x00\n        /* \"#utility.yul\":1436:1445   */\n      dup5\n        /* \"#utility.yul\":1432:1449   */\n      add\n        /* \"#utility.yul\":1419:1450   */\n      calldataload\n        /* \"#utility.yul\":1477:1495   */\n      0xffffffffffffffff\n        /* \"#utility.yul\":1469:1475   */\n      dup2\n        /* \"#utility.yul\":1466:1496   */\n      gt\n        /* \"#utility.yul\":1463:1465   */\n      iszero\n      tag_140\n      jumpi\n        /* \"#utility.yul\":1509:1510   */\n      0x00\n        /* \"#utility.yul\":1506:1507   */\n      dup1\n        /* \"#utility.yul\":1499:1511   */\n      revert\n        /* \"#utility.yul\":1463:1465   */\n    tag_140:\n        /* \"#utility.yul\":1537:1600   */\n      tag_141\n        /* \"#utility.yul\":1592:1599   */\n      dup7\n        /* \"#utility.yul\":1583:1589   */\n      dup3\n        /* \"#utility.yul\":1572:1581   */\n      dup8\n        /* \"#utility.yul\":1568:1590   */\n      add\n        /* \"#utility.yul\":1537:1600   */\n      tag_127\n      jump\t// in\n    tag_141:\n        /* \"#utility.yul\":1527:1600   */\n      swap4\n      pop\n        /* \"#utility.yul\":1390:1610   */\n      pop\n        /* \"#utility.yul\":1649:1651   */\n      0x20\n        /* \"#utility.yul\":1675:1728   */\n      tag_142\n        /* \"#utility.yul\":1720:1727   */\n      dup7\n        /* \"#utility.yul\":1711:1717   */\n      dup3\n        /* \"#utility.yul\":1700:1709   */\n      dup8\n        /* \"#utility.yul\":1696:1718   */\n      add\n        /* \"#utility.yul\":1675:1728   */\n      tag_131\n      jump\t// in\n    tag_142:\n        /* \"#utility.yul\":1665:1728   */\n      swap3\n      pop\n        /* \"#utility.yul\":1620:1738   */\n      pop\n        /* \"#utility.yul\":1777:1779   */\n      0x40\n        /* \"#utility.yul\":1803:1856   */\n      tag_143\n        /* \"#utility.yul\":1848:1855   */\n      dup7\n        /* \"#utility.yul\":1839:1845   */\n      dup3\n        /* \"#utility.yul\":1828:1837   */\n      dup8\n        /* \"#utility.yul\":1824:1846   */\n      add\n        /* \"#utility.yul\":1803:1856   */\n      tag_123\n      jump\t// in\n    tag_143:\n        /* \"#utility.yul\":1793:1856   */\n      swap2\n      pop\n        /* \"#utility.yul\":1748:1866   */\n      pop\n        /* \"#utility.yul\":1318:1873   */\n      swap3\n      pop\n      swap3\n      pop\n      swap3\n      jump\t// out\n        /* \"#utility.yul\":1879:2141   */\n    tag_18:\n      0x00\n        /* \"#utility.yul\":1987:1989   */\n      0x20\n        /* \"#utility.yul\":1975:1984   */\n      dup3\n        /* \"#utility.yul\":1966:1973   */\n      dup5\n        /* \"#utility.yul\":1962:1985   */\n      sub\n        /* \"#utility.yul\":1958:1990   */\n      slt\n        /* \"#utility.yul\":1955:1957   */\n      iszero\n      tag_145\n      jumpi\n        /* \"#utility.yul\":2003:2004   */\n      0x00\n        /* \"#utility.yul\":2000:2001   */\n      dup1\n        /* \"#utility.yul\":1993:2005   */\n      revert\n        /* \"#utility.yul\":1955:1957   */\n    tag_145:\n        /* \"#utility.yul\":2046:2047   */\n      0x00\n        /* \"#utility.yul\":2071:2124   */\n      tag_146\n        /* \"#utility.yul\":2116:2123   */\n      dup5\n        /* \"#utility.yul\":2107:2113   */\n      dup3\n        /* \"#utility.yul\":2096:2105   */\n      dup6\n        /* \"#utility.yul\":2092:2114   */\n      add\n        /* \"#utility.yul\":2071:2124   */\n      tag_131\n      jump\t// in\n    tag_146:\n        /* \"#utility.yul\":2061:2124   */\n      swap2\n      pop\n        /* \"#utility.yul\":2017:2134   */\n      pop\n        /* \"#utility.yul\":1945:2141   */\n      swap3\n      swap2\n      pop\n      pop\n      jump\t// out\n        /* \"#utility.yul\":2147:2265   */\n    tag_147:\n        /* \"#utility.yul\":2234:2258   */\n      tag_149\n        /* \"#utility.yul\":2252:2257   */\n      dup2\n        /* \"#utility.yul\":2234:2258   */\n      tag_150\n      jump\t// in\n    tag_149:\n        /* \"#utility.yul\":2229:2232   */\n      dup3\n        /* \"#utility.yul\":2222:2259   */\n      mstore\n        /* \"#utility.yul\":2212:2265   */\n      pop\n      pop\n      jump\t// out\n        /* \"#utility.yul\":2271:2380   */\n    tag_151:\n        /* \"#utility.yul\":2352:2373   */\n      tag_153\n        /* \"#utility.yul\":2367:2372   */\n      dup2\n        /* \"#utility.yul\":2352:2373   */\n      tag_154\n      jump\t// in\n    tag_153:\n        /* \"#utility.yul\":2347:2350   */\n      dup3\n        /* \"#utility.yul\":2340:2374   */\n      mstore\n        /* \"#utility.yul\":2330:2380   */\n      pop\n      pop\n      jump\t// out\n        /* \"#utility.yul\":2386:2750   */\n    tag_155:\n      0x00\n        /* \"#utility.yul\":2502:2541   */\n      tag_157\n        /* \"#utility.yul\":2535:2540   */\n      dup3\n        /* \"#utility.yul\":2502:2541   */\n      tag_158\n      jump\t// in\n    tag_157:\n        /* \"#utility.yul\":2557:2628   */\n      tag_159\n        /* \"#utility.yul\":2621:2627   */\n      dup2\n        /* \"#utility.yul\":2616:2619   */\n      dup6\n        /* \"#utility.yul\":2557:2628   */\n      tag_160\n      jump\t// in\n    tag_159:\n        /* \"#utility.yul\":2550:2628   */\n      swap4\n      pop\n        /* \"#utility.yul\":2637:2689   */\n      tag_161\n        /* \"#utility.yul\":2682:2688   */\n      dup2\n        /* \"#utility.yul\":2677:2680   */\n      dup6\n        /* \"#utility.yul\":2670:2674   */\n      0x20\n        /* \"#utility.yul\":2663:2668   */\n      dup7\n        /* \"#utility.yul\":2659:2675   */\n      add\n        /* \"#utility.yul\":2637:2689   */\n      tag_162\n      jump\t// in\n    tag_161:\n        /* \"#utility.yul\":2714:2743   */\n      tag_163\n        /* \"#utility.yul\":2736:2742   */\n      dup2\n        /* \"#utility.yul\":2714:2743   */\n      tag_164\n      jump\t// in\n    tag_163:\n        /* \"#utility.yul\":2709:2712   */\n      dup5\n        /* \"#utility.yul\":2705:2744   */\n      add\n        /* \"#utility.yul\":2698:2744   */\n      swap2\n      pop\n        /* \"#utility.yul\":2478:2750   */\n      pop\n      swap3\n      swap2\n      pop\n      pop\n      jump\t// out\n        /* \"#utility.yul\":2756:2874   */\n    tag_165:\n        /* \"#utility.yul\":2843:2867   */\n      tag_167\n        /* \"#utility.yul\":2861:2866   */\n      dup2\n        /* \"#utility.yul\":2843:2867   */\n      tag_168\n      jump\t// in\n    tag_167:\n        /* \"#utility.yul\":2838:2841   */\n      dup3\n        /* \"#utility.yul\":2831:2868   */\n      mstore\n        /* \"#utility.yul\":2821:2874   */\n      pop\n      pop\n      jump\t// out\n        /* \"#utility.yul\":2880:3102   */\n    tag_45:\n      0x00\n        /* \"#utility.yul\":3011:3013   */\n      0x20\n        /* \"#utility.yul\":3000:3009   */\n      dup3\n        /* \"#utility.yul\":2996:3014   */\n      add\n        /* \"#utility.yul\":2988:3014   */\n      swap1\n      pop\n        /* \"#utility.yul\":3024:3095   */\n      tag_170\n        /* \"#utility.yul\":3092:3093   */\n      0x00\n        /* \"#utility.yul\":3081:3090   */\n      dup4\n        /* \"#utility.yul\":3077:3094   */\n      add\n        /* \"#utility.yul\":3068:3074   */\n      dup5\n        /* \"#utility.yul\":3024:3095   */\n      tag_147\n      jump\t// in\n    tag_170:\n        /* \"#utility.yul\":2978:3102   */\n      swap3\n      swap2\n      pop\n      pop\n      jump\t// out\n        /* \"#utility.yul\":3108:3318   */\n    tag_40:\n      0x00\n        /* \"#utility.yul\":3233:3235   */\n      0x20\n        /* \"#utility.yul\":3222:3231   */\n      dup3\n        /* \"#utility.yul\":3218:3236   */\n      add\n        /* \"#utility.yul\":3210:3236   */\n      swap1\n      pop\n        /* \"#utility.yul\":3246:3311   */\n      tag_172\n        /* \"#utility.yul\":3308:3309   */\n      0x00\n        /* \"#utility.yul\":3297:3306   */\n      dup4\n        /* \"#utility.yul\":3293:3310   */\n      add\n        /* \"#utility.yul\":3284:3290   */\n      dup5\n        /* \"#utility.yul\":3246:3311   */\n      tag_151\n      jump\t// in\n    tag_172:\n        /* \"#utility.yul\":3200:3318   */\n      swap3\n      swap2\n      pop\n      pop\n      jump\t// out\n        /* \"#utility.yul\":3324:4067   */\n    tag_51:\n      0x00\n        /* \"#utility.yul\":3581:3584   */\n      0xa0\n        /* \"#utility.yul\":3570:3579   */\n      dup3\n        /* \"#utility.yul\":3566:3585   */\n      add\n        /* \"#utility.yul\":3558:3585   */\n      swap1\n      pop\n        /* \"#utility.yul\":3631:3640   */\n      dup2\n        /* \"#utility.yul\":3625:3629   */\n      dup2\n        /* \"#utility.yul\":3621:3641   */\n      sub\n        /* \"#utility.yul\":3617:3618   */\n      0x00\n        /* \"#utility.yul\":3606:3615   */\n      dup4\n        /* \"#utility.yul\":3602:3619   */\n      add\n        /* \"#utility.yul\":3595:3642   */\n      mstore\n        /* \"#utility.yul\":3659:3737   */\n      tag_174\n        /* \"#utility.yul\":3732:3736   */\n      dup2\n        /* \"#utility.yul\":3723:3729   */\n      dup9\n        /* \"#utility.yul\":3659:3737   */\n      tag_155\n      jump\t// in\n    tag_174:\n        /* \"#utility.yul\":3651:3737   */\n      swap1\n      pop\n        /* \"#utility.yul\":3747:3819   */\n      tag_175\n        /* \"#utility.yul\":3815:3817   */\n      0x20\n        /* \"#utility.yul\":3804:3813   */\n      dup4\n        /* \"#utility.yul\":3800:3818   */\n      add\n        /* \"#utility.yul\":3791:3797   */\n      dup8\n        /* \"#utility.yul\":3747:3819   */\n      tag_165\n      jump\t// in\n    tag_175:\n        /* \"#utility.yul\":3829:3901   */\n      tag_176\n        /* \"#utility.yul\":3897:3899   */\n      0x40\n        /* \"#utility.yul\":3886:3895   */\n      dup4\n        /* \"#utility.yul\":3882:3900   */\n      add\n        /* \"#utility.yul\":3873:3879   */\n      dup7\n        /* \"#utility.yul\":3829:3901   */\n      tag_147\n      jump\t// in\n    tag_176:\n        /* \"#utility.yul\":3911:3977   */\n      tag_177\n        /* \"#utility.yul\":3973:3975   */\n      0x60\n        /* \"#utility.yul\":3962:3971   */\n      dup4\n        /* \"#utility.yul\":3958:3976   */\n      add\n        /* \"#utility.yul\":3949:3955   */\n      dup6\n        /* \"#utility.yul\":3911:3977   */\n      tag_151\n      jump\t// in\n    tag_177:\n        /* \"#utility.yul\":3987:4060   */\n      tag_178\n        /* \"#utility.yul\":4055:4058   */\n      0x80\n        /* \"#utility.yul\":4044:4053   */\n      dup4\n        /* \"#utility.yul\":4040:4059   */\n      add\n        /* \"#utility.yul\":4031:4037   */\n      dup5\n        /* \"#utility.yul\":3987:4060   */\n      tag_165\n      jump\t// in\n    tag_178:\n        /* \"#utility.yul\":3548:4067   */\n      swap7\n      swap6\n      pop\n      pop\n      pop\n      pop\n      pop\n      pop\n      jump\t// out\n        /* \"#utility.yul\":4073:4295   */\n    tag_29:\n      0x00\n        /* \"#utility.yul\":4204:4206   */\n      0x20\n        /* \"#utility.yul\":4193:4202   */\n      dup3\n        /* \"#utility.yul\":4189:4207   */\n      add\n        /* \"#utility.yul\":4181:4207   */\n      swap1\n      pop\n        /* \"#utility.yul\":4217:4288   */\n      tag_180\n        /* \"#utility.yul\":4285:4286   */\n      0x00\n        /* \"#utility.yul\":4274:4283   */\n      dup4\n        /* \"#utility.yul\":4270:4287   */\n      add\n        /* \"#utility.yul\":4261:4267   */\n      dup5\n        /* \"#utility.yul\":4217:4288   */\n      tag_165\n      jump\t// in\n    tag_180:\n        /* \"#utility.yul\":4171:4295   */\n      swap3\n      swap2\n      pop\n      pop\n      jump\t// out\n        /* \"#utility.yul\":4301:4965   */\n    tag_24:\n      0x00\n        /* \"#utility.yul\":4544:4547   */\n      0xa0\n        /* \"#utility.yul\":4533:4542   */\n      dup3\n        /* \"#utility.yul\":4529:4548   */\n      add\n        /* \"#utility.yul\":4521:4548   */\n      swap1\n      pop\n        /* \"#utility.yul\":4558:4629   */\n      tag_182\n        /* \"#utility.yul\":4626:4627   */\n      0x00\n        /* \"#utility.yul\":4615:4624   */\n      dup4\n        /* \"#utility.yul\":4611:4628   */\n      add\n        /* \"#utility.yul\":4602:4608   */\n      dup9\n        /* \"#utility.yul\":4558:4629   */\n      tag_165\n      jump\t// in\n    tag_182:\n        /* \"#utility.yul\":4639:4711   */\n      tag_183\n        /* \"#utility.yul\":4707:4709   */\n      0x20\n        /* \"#utility.yul\":4696:4705   */\n      dup4\n        /* \"#utility.yul\":4692:4710   */\n      add\n        /* \"#utility.yul\":4683:4689   */\n      dup8\n        /* \"#utility.yul\":4639:4711   */\n      tag_165\n      jump\t// in\n    tag_183:\n        /* \"#utility.yul\":4721:4793   */\n      tag_184\n        /* \"#utility.yul\":4789:4791   */\n      0x40\n        /* \"#utility.yul\":4778:4787   */\n      dup4\n        /* \"#utility.yul\":4774:4792   */\n      add\n        /* \"#utility.yul\":4765:4771   */\n      dup7\n        /* \"#utility.yul\":4721:4793   */\n      tag_165\n      jump\t// in\n    tag_184:\n        /* \"#utility.yul\":4803:4875   */\n      tag_185\n        /* \"#utility.yul\":4871:4873   */\n      0x60\n        /* \"#utility.yul\":4860:4869   */\n      dup4\n        /* \"#utility.yul\":4856:4874   */\n      add\n        /* \"#utility.yul\":4847:4853   */\n      dup6\n        /* \"#utility.yul\":4803:4875   */\n      tag_165\n      jump\t// in\n    tag_185:\n        /* \"#utility.yul\":4885:4958   */\n      tag_186\n        /* \"#utility.yul\":4953:4956   */\n      0x80\n        /* \"#utility.yul\":4942:4951   */\n      dup4\n        /* \"#utility.yul\":4938:4957   */\n      add\n        /* \"#utility.yul\":4929:4935   */\n      dup5\n        /* \"#utility.yul\":4885:4958   */\n      tag_147\n      jump\t// in\n    tag_186:\n        /* \"#utility.yul\":4511:4965   */\n      swap7\n      swap6\n      pop\n      pop\n      pop\n      pop\n      pop\n      pop\n      jump\t// out\n        /* \"#utility.yul\":4971:5254   */\n    tag_119:\n      0x00\n        /* \"#utility.yul\":5037:5039   */\n      0x40\n        /* \"#utility.yul\":5031:5040   */\n      mload\n        /* \"#utility.yul\":5021:5040   */\n      swap1\n      pop\n        /* \"#utility.yul\":5079:5083   */\n      dup2\n        /* \"#utility.yul\":5071:5077   */\n      dup2\n        /* \"#utility.yul\":5067:5084   */\n      add\n        /* \"#utility.yul\":5186:5192   */\n      dup2\n        /* \"#utility.yul\":5174:5184   */\n      dup2\n        /* \"#utility.yul\":5171:5193   */\n      lt\n        /* \"#utility.yul\":5150:5168   */\n      0xffffffffffffffff\n        /* \"#utility.yul\":5138:5148   */\n      dup3\n        /* \"#utility.yul\":5135:5169   */\n      gt\n        /* \"#utility.yul\":5132:5194   */\n      or\n        /* \"#utility.yul\":5129:5131   */\n      iszero\n      tag_188\n      jumpi\n        /* \"#utility.yul\":5197:5215   */\n      tag_189\n      tag_190\n      jump\t// in\n    tag_189:\n        /* \"#utility.yul\":5129:5131   */\n    tag_188:\n        /* \"#utility.yul\":5237:5247   */\n      dup1\n        /* \"#utility.yul\":5233:5235   */\n      0x40\n        /* \"#utility.yul\":5226:5248   */\n      mstore\n        /* \"#utility.yul\":5011:5254   */\n      pop\n      swap2\n      swap1\n      pop\n      jump\t// out\n        /* \"#utility.yul\":5260:5592   */\n    tag_118:\n      0x00\n        /* \"#utility.yul\":5412:5430   */\n      0xffffffffffffffff\n        /* \"#utility.yul\":5404:5410   */\n      dup3\n        /* \"#utility.yul\":5401:5431   */\n      gt\n        /* \"#utility.yul\":5398:5400   */\n      iszero\n      tag_192\n      jumpi\n        /* \"#utility.yul\":5434:5452   */\n      tag_193\n      tag_190\n      jump\t// in\n    tag_193:\n        /* \"#utility.yul\":5398:5400   */\n    tag_192:\n        /* \"#utility.yul\":5519:5523   */\n      0x1f\n        /* \"#utility.yul\":5515:5524   */\n      not\n        /* \"#utility.yul\":5508:5512   */\n      0x1f\n        /* \"#utility.yul\":5500:5506   */\n      dup4\n        /* \"#utility.yul\":5496:5513   */\n      add\n        /* \"#utility.yul\":5492:5525   */\n      and\n        /* \"#utility.yul\":5484:5525   */\n      swap1\n      pop\n        /* \"#utility.yul\":5580:5584   */\n      0x20\n        /* \"#utility.yul\":5574:5578   */\n      dup2\n        /* \"#utility.yul\":5570:5585   */\n      add\n        /* \"#utility.yul\":5562:5585   */\n      swap1\n      pop\n        /* \"#utility.yul\":5327:5592   */\n      swap2\n      swap1\n      pop\n      jump\t// out\n        /* \"#utility.yul\":5598:5697   */\n    tag_158:\n      0x00\n        /* \"#utility.yul\":5684:5689   */\n      dup2\n        /* \"#utility.yul\":5678:5690   */\n      mload\n        /* \"#utility.yul\":5668:5690   */\n      swap1\n      pop\n        /* \"#utility.yul\":5657:5697   */\n      swap2\n      swap1\n      pop\n      jump\t// out\n        /* \"#utility.yul\":5703:5872   */\n    tag_160:\n      0x00\n        /* \"#utility.yul\":5821:5827   */\n      dup3\n        /* \"#utility.yul\":5816:5819   */\n      dup3\n        /* \"#utility.yul\":5809:5828   */\n      mstore\n        /* \"#utility.yul\":5861:5865   */\n      0x20\n        /* \"#utility.yul\":5856:5859   */\n      dup3\n        /* \"#utility.yul\":5852:5866   */\n      add\n        /* \"#utility.yul\":5837:5866   */\n      swap1\n      pop\n        /* \"#utility.yul\":5799:5872   */\n      swap3\n      swap2\n      pop\n      pop\n      jump\t// out\n        /* \"#utility.yul\":5878:6063   */\n    tag_76:\n      0x00\n        /* \"#utility.yul\":5935:5955   */\n      tag_197\n        /* \"#utility.yul\":5953:5954   */\n      dup3\n        /* \"#utility.yul\":5935:5955   */\n      tag_168\n      jump\t// in\n    tag_197:\n        /* \"#utility.yul\":5930:5955   */\n      swap2\n      pop\n        /* \"#utility.yul\":5969:5989   */\n      tag_198\n        /* \"#utility.yul\":5987:5988   */\n      dup4\n        /* \"#utility.yul\":5969:5989   */\n      tag_168\n      jump\t// in\n    tag_198:\n        /* \"#utility.yul\":5964:5989   */\n      swap3\n      pop\n        /* \"#utility.yul\":6008:6009   */\n      dup3\n        /* \"#utility.yul\":5998:6000   */\n      tag_199\n      jumpi\n        /* \"#utility.yul\":6013:6031   */\n      tag_200\n      tag_201\n      jump\t// in\n    tag_200:\n        /* \"#utility.yul\":5998:6000   */\n    tag_199:\n        /* \"#utility.yul\":6055:6056   */\n      dup3\n        /* \"#utility.yul\":6052:6053   */\n      dup3\n        /* \"#utility.yul\":6048:6057   */\n      div\n        /* \"#utility.yul\":6043:6057   */\n      swap1\n      pop\n        /* \"#utility.yul\":5920:6063   */\n      swap3\n      swap2\n      pop\n      pop\n      jump\t// out\n        /* \"#utility.yul\":6069:6165   */\n    tag_150:\n      0x00\n        /* \"#utility.yul\":6135:6159   */\n      tag_203\n        /* \"#utility.yul\":6153:6158   */\n      dup3\n        /* \"#utility.yul\":6135:6159   */\n      tag_204\n      jump\t// in\n    tag_203:\n        /* \"#utility.yul\":6124:6159   */\n      swap1\n      pop\n        /* \"#utility.yul\":6114:6165   */\n      swap2\n      swap1\n      pop\n      jump\t// out\n        /* \"#utility.yul\":6171:6261   */\n    tag_154:\n      0x00\n        /* \"#utility.yul\":6248:6253   */\n      dup2\n        /* \"#utility.yul\":6241:6254   */\n      iszero\n        /* \"#utility.yul\":6234:6255   */\n      iszero\n        /* \"#utility.yul\":6223:6255   */\n      swap1\n      pop\n        /* \"#utility.yul\":6213:6261   */\n      swap2\n      swap1\n      pop\n      jump\t// out\n        /* \"#utility.yul\":6267:6393   */\n    tag_204:\n      0x00\n        /* \"#utility.yul\":6344:6386   */\n      0xffffffffffffffffffffffffffffffffffffffff\n        /* \"#utility.yul\":6337:6342   */\n      dup3\n        /* \"#utility.yul\":6333:6387   */\n      and\n        /* \"#utility.yul\":6322:6387   */\n      swap1\n      pop\n        /* \"#utility.yul\":6312:6393   */\n      swap2\n      swap1\n      pop\n      jump\t// out\n        /* \"#utility.yul\":6399:6476   */\n    tag_168:\n      0x00\n        /* \"#utility.yul\":6465:6470   */\n      dup2\n        /* \"#utility.yul\":6454:6470   */\n      swap1\n      pop\n        /* \"#utility.yul\":6444:6476   */\n      swap2\n      swap1\n      pop\n      jump\t// out\n        /* \"#utility.yul\":6482:6636   */\n    tag_122:\n        /* \"#utility.yul\":6566:6572   */\n      dup3\n        /* \"#utility.yul\":6561:6564   */\n      dup2\n        /* \"#utility.yul\":6556:6559   */\n      dup4\n        /* \"#utility.yul\":6543:6573   */\n      calldatacopy\n        /* \"#utility.yul\":6628:6629   */\n      0x00\n        /* \"#utility.yul\":6619:6625   */\n      dup4\n        /* \"#utility.yul\":6614:6617   */\n      dup4\n        /* \"#utility.yul\":6610:6626   */\n      add\n        /* \"#utility.yul\":6603:6630   */\n      mstore\n        /* \"#utility.yul\":6533:6636   */\n      pop\n      pop\n      pop\n      jump\t// out\n        /* \"#utility.yul\":6642:6949   */\n    tag_162:\n        /* \"#utility.yul\":6710:6711   */\n      0x00\n        /* \"#utility.yul\":6720:6833   */\n    tag_210:\n        /* \"#utility.yul\":6734:6740   */\n      dup4\n        /* \"#utility.yul\":6731:6732   */\n      dup2\n        /* \"#utility.yul\":6728:6741   */\n      lt\n        /* \"#utility.yul\":6720:6833   */\n      iszero\n      tag_212\n      jumpi\n        /* \"#utility.yul\":6819:6820   */\n      dup1\n        /* \"#utility.yul\":6814:6817   */\n      dup3\n        /* \"#utility.yul\":6810:6821   */\n      add\n        /* \"#utility.yul\":6804:6822   */\n      mload\n        /* \"#utility.yul\":6800:6801   */\n      dup2\n        /* \"#utility.yul\":6795:6798   */\n      dup5\n        /* \"#utility.yul\":6791:6802   */\n      add\n        /* \"#utility.yul\":6784:6823   */\n      mstore\n        /* \"#utility.yul\":6756:6758   */\n      0x20\n        /* \"#utility.yul\":6753:6754   */\n      dup2\n        /* \"#utility.yul\":6749:6759   */\n      add\n        /* \"#utility.yul\":6744:6759   */\n      swap1\n      pop\n        /* \"#utility.yul\":6720:6833   */\n      jump(tag_210)\n    tag_212:\n        /* \"#utility.yul\":6851:6857   */\n      dup4\n        /* \"#utility.yul\":6848:6849   */\n      dup2\n        /* \"#utility.yul\":6845:6858   */\n      gt\n        /* \"#utility.yul\":6842:6844   */\n      iszero\n      tag_213\n      jumpi\n        /* \"#utility.yul\":6931:6932   */\n      0x00\n        /* \"#utility.yul\":6922:6928   */\n      dup5\n        /* \"#utility.yul\":6917:6920   */\n      dup5\n        /* \"#utility.yul\":6913:6929   */\n      add\n        /* \"#utility.yul\":6906:6933   */\n      mstore\n        /* \"#utility.yul\":6842:6844   */\n    tag_213:\n        /* \"#utility.yul\":6691:6949   */\n      pop\n      pop\n      pop\n      pop\n      jump\t// out\n        /* \"#utility.yul\":6955:7275   */\n    tag_84:\n      0x00\n        /* \"#utility.yul\":7036:7037   */\n      0x02\n        /* \"#utility.yul\":7030:7034   */\n      dup3\n        /* \"#utility.yul\":7026:7038   */\n      div\n        /* \"#utility.yul\":7016:7038   */\n      swap1\n      pop\n        /* \"#utility.yul\":7083:7084   */\n      0x01\n        /* \"#utility.yul\":7077:7081   */\n      dup3\n        /* \"#utility.yul\":7073:7085   */\n      and\n        /* \"#utility.yul\":7104:7122   */\n      dup1\n        /* \"#utility.yul\":7094:7096   */\n      tag_215\n      jumpi\n        /* \"#utility.yul\":7160:7164   */\n      0x7f\n        /* \"#utility.yul\":7152:7158   */\n      dup3\n        /* \"#utility.yul\":7148:7165   */\n      and\n        /* \"#utility.yul\":7138:7165   */\n      swap2\n      pop\n        /* \"#utility.yul\":7094:7096   */\n    tag_215:\n        /* \"#utility.yul\":7222:7224   */\n      0x20\n        /* \"#utility.yul\":7214:7220   */\n      dup3\n        /* \"#utility.yul\":7211:7225   */\n      lt\n        /* \"#utility.yul\":7191:7209   */\n      dup2\n        /* \"#utility.yul\":7188:7226   */\n      eq\n        /* \"#utility.yul\":7185:7187   */\n      iszero\n      tag_216\n      jumpi\n        /* \"#utility.yul\":7241:7259   */\n      tag_217\n      tag_218\n      jump\t// in\n    tag_217:\n        /* \"#utility.yul\":7185:7187   */\n    tag_216:\n        /* \"#utility.yul\":7006:7275   */\n      pop\n      swap2\n      swap1\n      pop\n      jump\t// out\n        /* \"#utility.yul\":7281:7514   */\n    tag_95:\n      0x00\n        /* \"#utility.yul\":7343:7367   */\n      tag_220\n        /* \"#utility.yul\":7361:7366   */\n      dup3\n        /* \"#utility.yul\":7343:7367   */\n      tag_168\n      jump\t// in\n    tag_220:\n        /* \"#utility.yul\":7334:7367   */\n      swap2\n      pop\n        /* \"#utility.yul\":7389:7455   */\n      0xffffffffffffffffffffffffffffffffffffffffffffffffffffffffffffffff\n        /* \"#utility.yul\":7382:7387   */\n      dup3\n        /* \"#utility.yul\":7379:7456   */\n      eq\n        /* \"#utility.yul\":7376:7378   */\n      iszero\n      tag_221\n      jumpi\n        /* \"#utility.yul\":7459:7477   */\n      tag_222\n      tag_223\n      jump\t// in\n    tag_222:\n        /* \"#utility.yul\":7376:7378   */\n    tag_221:\n        /* \"#utility.yul\":7506:7507   */\n      0x01\n        /* \"#utility.yul\":7499:7504   */\n      dup3\n        /* \"#utility.yul\":7495:7508   */\n      add\n        /* \"#utility.yul\":7488:7508   */\n      swap1\n      pop\n        /* \"#utility.yul\":7324:7514   */\n      swap2\n      swap1\n      pop\n      jump\t// out\n        /* \"#utility.yul\":7520:7700   */\n    tag_223:\n        /* \"#utility.yul\":7568:7645   */\n      0x4e487b7100000000000000000000000000000000000000000000000000000000\n        /* \"#utility.yul\":7565:7566   */\n      0x00\n        /* \"#utility.yul\":7558:7646   */\n      mstore\n        /* \"#utility.yul\":7665:7669   */\n      0x11\n        /* \"#utility.yul\":7662:7663   */\n      0x04\n        /* \"#utility.yul\":7655:7670   */\n      mstore\n        /* \"#utility.yul\":7689:7693   */\n      0x24\n        /* \"#utility.yul\":7686:7687   */\n      0x00\n        /* \"#utility.yul\":7679:7694   */\n      revert\n        /* \"#utility.yul\":7706:7886   */\n    tag_201:\n        /* \"#utility.yul\":7754:7831   */\n      0x4e487b7100000000000000000000000000000000000000000000000000000000\n        /* \"#utility.yul\":7751:7752   */\n      0x00\n        /* \"#utility.yul\":7744:7832   */\n      mstore\n        /* \"#utility.yul\":7851:7855   */\n      0x12\n        /* \"#utility.yul\":7848:7849   */\n      0x04\n        /* \"#utility.yul\":7841:7856   */\n      mstore\n        /* \"#utility.yul\":7875:7879   */\n      0x24\n        /* \"#utility.yul\":7872:7873   */\n      0x00\n        /* \"#utility.yul\":7865:7880   */\n      revert\n        /* \"#utility.yul\":7892:8072   */\n    tag_218:\n        /* \"#utility.yul\":7940:8017   */\n      0x4e487b7100000000000000000000000000000000000000000000000000000000\n        /* \"#utility.yul\":7937:7938   */\n      0x00\n        /* \"#utility.yul\":7930:8018   */\n      mstore\n        /* \"#utility.yul\":8037:8041   */\n      0x22\n        /* \"#utility.yul\":8034:8035   */\n      0x04\n        /* \"#utility.yul\":8027:8042   */\n      mstore\n        /* \"#utility.yul\":8061:8065   */\n      0x24\n        /* \"#utility.yul\":8058:8059   */\n      0x00\n        /* \"#utility.yul\":8051:8066   */\n      revert\n        /* \"#utility.yul\":8078:8258   */\n    tag_190:\n        /* \"#utility.yul\":8126:8203   */\n      0x4e487b7100000000000000000000000000000000000000000000000000000000\n        /* \"#utility.yul\":8123:8124   */\n      0x00\n        /* \"#utility.yul\":8116:8204   */\n      mstore\n        /* \"#utility.yul\":8223:8227   */\n      0x41\n        /* \"#utility.yul\":8220:8221   */\n      0x04\n        /* \"#utility.yul\":8213:8228   */\n      mstore\n        /* \"#utility.yul\":8247:8251   */\n      0x24\n        /* \"#utility.yul\":8244:8245   */\n      0x00\n        /* \"#utility.yul\":8237:8252   */\n      revert\n        /* \"#utility.yul\":8264:8366   */\n    tag_164:\n      0x00\n        /* \"#utility.yul\":8356:8358   */\n      0x1f\n        /* \"#utility.yul\":8352:8359   */\n      not\n        /* \"#utility.yul\":8347:8349   */\n      0x1f\n        /* \"#utility.yul\":8340:8345   */\n      dup4\n        /* \"#utility.yul\":8336:8350   */\n      add\n        /* \"#utility.yul\":8332:8360   */\n      and\n        /* \"#utility.yul\":8322:8360   */\n      swap1\n      pop\n        /* \"#utility.yul\":8312:8366   */\n      swap2\n      swap1\n      pop\n      jump\t// out\n        /* \"#utility.yul\":8372:8494   */\n    tag_126:\n        /* \"#utility.yul\":8445:8469   */\n      tag_230\n        /* \"#utility.yul\":8463:8468   */\n      dup2\n        /* \"#utility.yul\":8445:8469   */\n      tag_150\n      jump\t// in\n    tag_230:\n        /* \"#utility.yul\":8438:8443   */\n      dup2\n        /* \"#utility.yul\":8435:8470   */\n      eq\n        /* \"#utility.yul\":8425:8427   */\n      tag_231\n      jumpi\n        /* \"#utility.yul\":8484:8485   */\n      0x00\n        /* \"#utility.yul\":8481:8482   */\n      dup1\n        /* \"#utility.yul\":8474:8486   */\n      revert\n        /* \"#utility.yul\":8425:8427   */\n    tag_231:\n        /* \"#utility.yul\":8415:8494   */\n      pop\n      jump\t// out\n        /* \"#utility.yul\":8500:8622   */\n    tag_134:\n        /* \"#utility.yul\":8573:8597   */\n      tag_233\n        /* \"#utility.yul\":8591:8596   */\n      dup2\n        /* \"#utility.yul\":8573:8597   */\n      tag_168\n      jump\t// in\n    tag_233:\n        /* \"#utility.yul\":8566:8571   */\n      dup2\n        /* \"#utility.yul\":8563:8598   */\n      eq\n        /* \"#utility.yul\":8553:8555   */\n      tag_234\n      jumpi\n        /* \"#utility.yul\":8612:8613   */\n      0x00\n        /* \"#utility.yul\":8609:8610   */\n      dup1\n        /* \"#utility.yul\":8602:8614   */\n      revert\n        /* \"#utility.yul\":8553:8555   */\n    tag_234:\n        /* \"#utility.yul\":8543:8622   */\n      pop\n      jump\t// out\n\n    auxdata: 0xa2646970667358221220d3efc1b69ba4834159753890db35888bdef4736be98c9c7d63ef496a031f1c2d64736f6c63430008000033\n}\n","bytecode":{"linkReferences":{},"object":"60806040523480156200001157600080fd5b5060405162001014380380620010148339818101604052810190620000379190620000b4565b806000806101000a81548173ffffffffffffffffffffffffffffffffffffffff021916908373ffffffffffffffffffffffffffffffffffffffff16021790555081600181905550505062000167565b600081519050620000978162000133565b92915050565b600081519050620000ae816200014d565b92915050565b60008060408385031215620000c857600080fd5b6000620000d8858286016200009d565b9250506020620000eb8582860162000086565b9150509250929050565b6000620001028262000109565b9050919050565b600073ffffffffffffffffffffffffffffffffffffffff82169050919050565b6000819050919050565b6200013e81620000f5565b81146200014a57600080fd5b50565b620001588162000129565b81146200016457600080fd5b50565b610e9d80620001776000396000f3fe6080604052600436106100a75760003560e01c806381d12c581161006457806381d12c58146101c25780638ab1a3c414610203578063937e09b11461022c578063b309a91a14610257578063d8b6753614610261578063ff01fd811461028c576100a7565b80630738ffcd146100ac57806319b889e2146100d557806320dd3de7146101045780632e35ba371461012f57806334b664601461015a578063481c6a7514610197575b600080fd5b3480156100b857600080fd5b506100d360048036038101906100ce9190610a2c565b6102b5565b005b3480156100e157600080fd5b506100ea6103fe565b6040516100fb959493929190610b66565b60405180910390f35b34801561011057600080fd5b50610119610442565b6040516101269190610b4b565b60405180910390f35b34801561013b57600080fd5b50610144610448565b6040516101519190610b4b565b60405180910390f35b34801561016657600080fd5b50610181600480360381019061017c919061099c565b610452565b60405161018e9190610ad6565b60405180910390f35b3480156101a357600080fd5b506101ac610472565b6040516101b99190610abb565b60405180910390f35b3480156101ce57600080fd5b506101e960048036038101906101e49190610a2c565b610496565b6040516101fa959493929190610af1565b60405180910390f35b34801561020f57600080fd5b5061022a600480360381019061022591906109c5565b610581565b005b34801561023857600080fd5b5061024161069c565b60405161024e9190610b4b565b60405180910390f35b61025f6106a2565b005b34801561026d57600080fd5b50610276610723565b6040516102839190610b4b565b60405180910390f35b34801561029857600080fd5b506102b360048036038101906102ae9190610a2c565b610729565b005b60008054906101000a900473ffffffffffffffffffffffffffffffffffffffff1673ffffffffffffffffffffffffffffffffffffffff163373ffffffffffffffffffffffffffffffffffffffff161461030d57600080fd5b60006005600083815260200190815260200160002090508060020160149054906101000a900460ff161561034057600080fd5b6002805461034e9190610c36565b81600301541161035d57600080fd5b806001015447101561036e57600080fd5b8060020160009054906101000a900473ffffffffffffffffffffffffffffffffffffffff1673ffffffffffffffffffffffffffffffffffffffff166108fc82600101549081150290604051600060405180830381858888f193505050501580156103dc573d6000803e3d6000fd5b5060018160020160146101000a81548160ff0219169083151502179055505050565b60008060008060006001544760045460025460008054906101000a900473ffffffffffffffffffffffffffffffffffffffff16945094509450945094509091929394565b60025481565b6000600454905090565b60036020528060005260406000206000915054906101000a900460ff1681565b60008054906101000a900473ffffffffffffffffffffffffffffffffffffffff1681565b60056020528060005260406000206000915090508060000180546104b990610cf1565b80601f01602080910402602001604051908101604052809291908181526020018280546104e590610cf1565b80156105325780601f1061050757610100808354040283529160200191610532565b820191906000526020600020905b81548152906001019060200180831161051557829003601f168201915b5050505050908060010154908060020160009054906101000a900473ffffffffffffffffffffffffffffffffffffffff16908060020160149054906101000a900460ff16908060030154905085565b60008054906101000a900473ffffffffffffffffffffffffffffffffffffffff1673ffffffffffffffffffffffffffffffffffffffff163373ffffffffffffffffffffffffffffffffffffffff16146105d957600080fd5b600060056000600454815260200190815260200160002090508381600001908051906020019061060a929190610867565b50828160010181905550818160020160006101000a81548173ffffffffffffffffffffffffffffffffffffffff021916908373ffffffffffffffffffffffffffffffffffffffff16021790555060008160020160146101000a81548160ff021916908315150217905550600081600301819055506004600081548092919061069190610d23565b919050555050505050565b60015481565b6001543410156106b157600080fd5b6001600360003373ffffffffffffffffffffffffffffffffffffffff1673ffffffffffffffffffffffffffffffffffffffff16815260200190815260200160002060006101000a81548160ff0219169083151502179055506002600081548092919061071c90610d23565b9190505550565b60045481565b600360003373ffffffffffffffffffffffffffffffffffffffff1673ffffffffffffffffffffffffffffffffffffffff16815260200190815260200160002060009054906101000a900460ff1661077f57600080fd5b60006005600083815260200190815260200160002090508060040160003373ffffffffffffffffffffffffffffffffffffffff1673ffffffffffffffffffffffffffffffffffffffff16815260200190815260200160002060009054906101000a900460ff16156107ef57600080fd5b60018160040160003373ffffffffffffffffffffffffffffffffffffffff1673ffffffffffffffffffffffffffffffffffffffff16815260200190815260200160002060006101000a81548160ff02191690831515021790555080600301600081548092919061085e90610d23565b91905055505050565b82805461087390610cf1565b90600052602060002090601f01602090048101928261089557600085556108dc565b82601f106108ae57805160ff19168380011785556108dc565b828001600101855582156108dc579182015b828111156108db5782518255916020019190600101906108c0565b5b5090506108e991906108ed565b5090565b5b808211156109065760008160009055506001016108ee565b5090565b600061091d61091884610bea565b610bb9565b90508281526020810184848401111561093557600080fd5b610940848285610caf565b509392505050565b60008135905061095781610e39565b92915050565b600082601f83011261096e57600080fd5b813561097e84826020860161090a565b91505092915050565b60008135905061099681610e50565b92915050565b6000602082840312156109ae57600080fd5b60006109bc84828501610948565b91505092915050565b6000806000606084860312156109da57600080fd5b600084013567ffffffffffffffff8111156109f457600080fd5b610a008682870161095d565b9350506020610a1186828701610987565b9250506040610a2286828701610948565b9150509250925092565b600060208284031215610a3e57600080fd5b6000610a4c84828501610987565b91505092915050565b610a5e81610c67565b82525050565b610a6d81610c79565b82525050565b6000610a7e82610c1a565b610a888185610c25565b9350610a98818560208601610cbe565b610aa181610e28565b840191505092915050565b610ab581610ca5565b82525050565b6000602082019050610ad06000830184610a55565b92915050565b6000602082019050610aeb6000830184610a64565b92915050565b600060a0820190508181036000830152610b0b8188610a73565b9050610b1a6020830187610aac565b610b276040830186610a55565b610b346060830185610a64565b610b416080830184610aac565b9695505050505050565b6000602082019050610b606000830184610aac565b92915050565b600060a082019050610b7b6000830188610aac565b610b886020830187610aac565b610b956040830186610aac565b610ba26060830185610aac565b610baf6080830184610a55565b9695505050505050565b6000604051905081810181811067ffffffffffffffff82111715610be057610bdf610df9565b5b8060405250919050565b600067ffffffffffffffff821115610c0557610c04610df9565b5b601f19601f8301169050602081019050919050565b600081519050919050565b600082825260208201905092915050565b6000610c4182610ca5565b9150610c4c83610ca5565b925082610c5c57610c5b610d9b565b5b828204905092915050565b6000610c7282610c85565b9050919050565b60008115159050919050565b600073ffffffffffffffffffffffffffffffffffffffff82169050919050565b6000819050919050565b82818337600083830152505050565b60005b83811015610cdc578082015181840152602081019050610cc1565b83811115610ceb576000848401525b50505050565b60006002820490506001821680610d0957607f821691505b60208210811415610d1d57610d1c610dca565b5b50919050565b6000610d2e82610ca5565b91507fffffffffffffffffffffffffffffffffffffffffffffffffffffffffffffffff821415610d6157610d60610d6c565b5b600182019050919050565b7f4e487b7100000000000000000000000000000000000000000000000000000000600052601160045260246000fd5b7f4e487b7100000000000000000000000000000000000000000000000000000000600052601260045260246000fd5b7f4e487b7100000000000000000000000000000000000000000000000000000000600052602260045260246000fd5b7f4e487b7100000000000000000000000000000000000000000000000000000000600052604160045260246000fd5b6000601f19601f8301169050919050565b610e4281610c67565b8114610e4d57600080fd5b50565b610e5981610ca5565b8114610e6457600080fd5b5056fea2646970667358221220d3efc1b69ba4834159753890db35888bdef4736be98c9c7d63ef496a031f1c2d64736f6c63430008000033","opcodes":"PUSH1 0x80 PUSH1 0x40 MSTORE CALLVALUE DUP1 ISZERO PUSH3 0x11 JUMPI PUSH1 0x0 DUP1 REVERT JUMPDEST POP PUSH1 0x40 MLOAD PUSH3 0x1014 CODESIZE SUB DUP1 PUSH3 0x1014 DUP4 CODECOPY DUP2 DUP2 ADD PUSH1 0x40 MSTORE DUP2 ADD SWAP1 PUSH3 0x37 SWAP2 SWAP1 PUSH3 0xB4 JUMP JUMPDEST DUP1 PUSH1 0x0 DUP1 PUSH2 0x100 EXP DUP2 SLOAD DUP2 PUSH20 0xFFFFFFFFFFFFFFFFFFFFFFFFFFFFFFFFFFFFFFFF MUL NOT AND SWAP1 DUP4 PUSH20 0xFFFFFFFFFFFFFFFFFFFFFFFFFFFFFFFFFFFFFFFF AND MUL OR SWAP1 SSTORE POP DUP2 PUSH1 0x1 DUP2 SWAP1 SSTORE POP POP POP PUSH3 0x167 JUMP JUMPDEST PUSH1 0x0 DUP2 MLOAD SWAP1 POP PUSH3 0x97 DUP2 PUSH3 0x133 JUMP JUMPDEST SWAP3 SWAP2 POP POP JUMP JUMPDEST PUSH1 0x0 DUP2 MLOAD SWAP1 POP PUSH3 0xAE DUP2 PUSH3 0x14D JUMP JUMPDEST SWAP3 SWAP2 POP POP JUMP JUMPDEST PUSH1 0x0 DUP1 PUSH1 0x40 DUP4 DUP6 SUB SLT ISZERO PUSH3 0xC8 JUMPI PUSH1 0x0 DUP1 REVERT JUMPDEST PUSH1 0x0 PUSH3 0xD8 DUP6 DUP3 DUP7 ADD PUSH3 0x9D JUMP JUMPDEST SWAP3 POP POP PUSH1 0x20 PUSH3 0xEB DUP6 DUP3 DUP7 ADD PUSH3 0x86 JUMP JUMPDEST SWAP2 POP POP SWAP3 POP SWAP3 SWAP1 POP JUMP JUMPDEST PUSH1 0x0 PUSH3 0x102 DUP3 PUSH3 0x109 JUMP JUMPDEST SWAP1 POP SWAP2 SWAP1 POP JUMP JUMPDEST PUSH1 0x0 PUSH20 0xFFFFFFFFFFFFFFFFFFFFFFFFFFFFFFFFFFFFFFFF DUP3 AND SWAP1 POP SWAP2 SWAP1 POP JUMP JUMPDEST PUSH1 0x0 DUP2 SWAP1 POP SWAP2 SWAP1 POP JUMP JUMPDEST PUSH3 0x13E DUP2 PUSH3 0xF5 JUMP JUMPDEST DUP2 EQ PUSH3 0x14A JUMPI PUSH1 0x0 DUP1 REVERT JUMPDEST POP JUMP JUMPDEST PUSH3 0x158 DUP2 PUSH3 0x129 JUMP JUMPDEST DUP2 EQ PUSH3 0x164 JUMPI PUSH1 0x0 DUP1 REVERT JUMPDEST POP JUMP JUMPDEST PUSH2 0xE9D DUP1 PUSH3 0x177 PUSH1 0x0 CODECOPY PUSH1 0x0 RETURN INVALID PUSH1 0x80 PUSH1 0x40 MSTORE PUSH1 0x4 CALLDATASIZE LT PUSH2 0xA7 JUMPI PUSH1 0x0 CALLDATALOAD PUSH1 0xE0 SHR DUP1 PUSH4 0x81D12C58 GT PUSH2 0x64 JUMPI DUP1 PUSH4 0x81D12C58 EQ PUSH2 0x1C2 JUMPI DUP1 PUSH4 0x8AB1A3C4 EQ PUSH2 0x203 JUMPI DUP1 PUSH4 0x937E09B1 EQ PUSH2 0x22C JUMPI DUP1 PUSH4 0xB309A91A EQ PUSH2 0x257 JUMPI DUP1 PUSH4 0xD8B67536 EQ PUSH2 0x261 JUMPI DUP1 PUSH4 0xFF01FD81 EQ PUSH2 0x28C JUMPI PUSH2 0xA7 JUMP JUMPDEST DUP1 PUSH4 0x738FFCD EQ PUSH2 0xAC JUMPI DUP1 PUSH4 0x19B889E2 EQ PUSH2 0xD5 JUMPI DUP1 PUSH4 0x20DD3DE7 EQ PUSH2 0x104 JUMPI DUP1 PUSH4 0x2E35BA37 EQ PUSH2 0x12F JUMPI DUP1 PUSH4 0x34B66460 EQ PUSH2 0x15A JUMPI DUP1 PUSH4 0x481C6A75 EQ PUSH2 0x197 JUMPI JUMPDEST PUSH1 0x0 DUP1 REVERT JUMPDEST CALLVALUE DUP1 ISZERO PUSH2 0xB8 JUMPI PUSH1 0x0 DUP1 REVERT JUMPDEST POP PUSH2 0xD3 PUSH1 0x4 DUP1 CALLDATASIZE SUB DUP2 ADD SWAP1 PUSH2 0xCE SWAP2 SWAP1 PUSH2 0xA2C JUMP JUMPDEST PUSH2 0x2B5 JUMP JUMPDEST STOP JUMPDEST CALLVALUE DUP1 ISZERO PUSH2 0xE1 JUMPI PUSH1 0x0 DUP1 REVERT JUMPDEST POP PUSH2 0xEA PUSH2 0x3FE JUMP JUMPDEST PUSH1 0x40 MLOAD PUSH2 0xFB SWAP6 SWAP5 SWAP4 SWAP3 SWAP2 SWAP1 PUSH2 0xB66 JUMP JUMPDEST PUSH1 0x40 MLOAD DUP1 SWAP2 SUB SWAP1 RETURN JUMPDEST CALLVALUE DUP1 ISZERO PUSH2 0x110 JUMPI PUSH1 0x0 DUP1 REVERT JUMPDEST POP PUSH2 0x119 PUSH2 0x442 JUMP JUMPDEST PUSH1 0x40 MLOAD PUSH2 0x126 SWAP2 SWAP1 PUSH2 0xB4B JUMP JUMPDEST PUSH1 0x40 MLOAD DUP1 SWAP2 SUB SWAP1 RETURN JUMPDEST CALLVALUE DUP1 ISZERO PUSH2 0x13B JUMPI PUSH1 0x0 DUP1 REVERT JUMPDEST POP PUSH2 0x144 PUSH2 0x448 JUMP JUMPDEST PUSH1 0x40 MLOAD PUSH2 0x151 SWAP2 SWAP1 PUSH2 0xB4B JUMP JUMPDEST PUSH1 0x40 MLOAD DUP1 SWAP2 SUB SWAP1 RETURN JUMPDEST CALLVALUE DUP1 ISZERO PUSH2 0x166 JUMPI PUSH1 0x0 DUP1 REVERT JUMPDEST POP PUSH2 0x181 PUSH1 0x4 DUP1 CALLDATASIZE SUB DUP2 ADD SWAP1 PUSH2 0x17C SWAP2 SWAP1 PUSH2 0x99C JUMP JUMPDEST PUSH2 0x452 JUMP JUMPDEST PUSH1 0x40 MLOAD PUSH2 0x18E SWAP2 SWAP1 PUSH2 0xAD6 JUMP JUMPDEST PUSH1 0x40 MLOAD DUP1 SWAP2 SUB SWAP1 RETURN JUMPDEST CALLVALUE DUP1 ISZERO PUSH2 0x1A3 JUMPI PUSH1 0x0 DUP1 REVERT JUMPDEST POP PUSH2 0x1AC PUSH2 0x472 JUMP JUMPDEST PUSH1 0x40 MLOAD PUSH2 0x1B9 SWAP2 SWAP1 PUSH2 0xABB JUMP JUMPDEST PUSH1 0x40 MLOAD DUP1 SWAP2 SUB SWAP1 RETURN JUMPDEST CALLVALUE DUP1 ISZERO PUSH2 0x1CE JUMPI PUSH1 0x0 DUP1 REVERT JUMPDEST POP PUSH2 0x1E9 PUSH1 0x4 DUP1 CALLDATASIZE SUB DUP2 ADD SWAP1 PUSH2 0x1E4 SWAP2 SWAP1 PUSH2 0xA2C JUMP JUMPDEST PUSH2 0x496 JUMP JUMPDEST PUSH1 0x40 MLOAD PUSH2 0x1FA SWAP6 SWAP5 SWAP4 SWAP3 SWAP2 SWAP1 PUSH2 0xAF1 JUMP JUMPDEST PUSH1 0x40 MLOAD DUP1 SWAP2 SUB SWAP1 RETURN JUMPDEST CALLVALUE DUP1 ISZERO PUSH2 0x20F JUMPI PUSH1 0x0 DUP1 REVERT JUMPDEST POP PUSH2 0x22A PUSH1 0x4 DUP1 CALLDATASIZE SUB DUP2 ADD SWAP1 PUSH2 0x225 SWAP2 SWAP1 PUSH2 0x9C5 JUMP JUMPDEST PUSH2 0x581 JUMP JUMPDEST STOP JUMPDEST CALLVALUE DUP1 ISZERO PUSH2 0x238 JUMPI PUSH1 0x0 DUP1 REVERT JUMPDEST POP PUSH2 0x241 PUSH2 0x69C JUMP JUMPDEST PUSH1 0x40 MLOAD PUSH2 0x24E SWAP2 SWAP1 PUSH2 0xB4B JUMP JUMPDEST PUSH1 0x40 MLOAD DUP1 SWAP2 SUB SWAP1 RETURN JUMPDEST PUSH2 0x25F PUSH2 0x6A2 JUMP JUMPDEST STOP JUMPDEST CALLVALUE DUP1 ISZERO PUSH2 0x26D JUMPI PUSH1 0x0 DUP1 REVERT JUMPDEST POP PUSH2 0x276 PUSH2 0x723 JUMP JUMPDEST PUSH1 0x40 MLOAD PUSH2 0x283 SWAP2 SWAP1 PUSH2 0xB4B JUMP JUMPDEST PUSH1 0x40 MLOAD DUP1 SWAP2 SUB SWAP1 RETURN JUMPDEST CALLVALUE DUP1 ISZERO PUSH2 0x298 JUMPI PUSH1 0x0 DUP1 REVERT JUMPDEST POP PUSH2 0x2B3 PUSH1 0x4 DUP1 CALLDATASIZE SUB DUP2 ADD SWAP1 PUSH2 0x2AE SWAP2 SWAP1 PUSH2 0xA2C JUMP JUMPDEST PUSH2 0x729 JUMP JUMPDEST STOP JUMPDEST PUSH1 0x0 DUP1 SLOAD SWAP1 PUSH2 0x100 EXP SWAP1 DIV PUSH20 0xFFFFFFFFFFFFFFFFFFFFFFFFFFFFFFFFFFFFFFFF AND PUSH20 0xFFFFFFFFFFFFFFFFFFFFFFFFFFFFFFFFFFFFFFFF AND CALLER PUSH20 0xFFFFFFFFFFFFFFFFFFFFFFFFFFFFFFFFFFFFFFFF AND EQ PUSH2 0x30D JUMPI PUSH1 0x0 DUP1 REVERT JUMPDEST PUSH1 0x0 PUSH1 0x5 PUSH1 0x0 DUP4 DUP2 MSTORE PUSH1 0x20 ADD SWAP1 DUP2 MSTORE PUSH1 0x20 ADD PUSH1 0x0 KECCAK256 SWAP1 POP DUP1 PUSH1 0x2 ADD PUSH1 0x14 SWAP1 SLOAD SWAP1 PUSH2 0x100 EXP SWAP1 DIV PUSH1 0xFF AND ISZERO PUSH2 0x340 JUMPI PUSH1 0x0 DUP1 REVERT JUMPDEST PUSH1 0x2 DUP1 SLOAD PUSH2 0x34E SWAP2 SWAP1 PUSH2 0xC36 JUMP JUMPDEST DUP2 PUSH1 0x3 ADD SLOAD GT PUSH2 0x35D JUMPI PUSH1 0x0 DUP1 REVERT JUMPDEST DUP1 PUSH1 0x1 ADD SLOAD SELFBALANCE LT ISZERO PUSH2 0x36E JUMPI PUSH1 0x0 DUP1 REVERT JUMPDEST DUP1 PUSH1 0x2 ADD PUSH1 0x0 SWAP1 SLOAD SWAP1 PUSH2 0x100 EXP SWAP1 DIV PUSH20 0xFFFFFFFFFFFFFFFFFFFFFFFFFFFFFFFFFFFFFFFF AND PUSH20 0xFFFFFFFFFFFFFFFFFFFFFFFFFFFFFFFFFFFFFFFF AND PUSH2 0x8FC DUP3 PUSH1 0x1 ADD SLOAD SWAP1 DUP2 ISZERO MUL SWAP1 PUSH1 0x40 MLOAD PUSH1 0x0 PUSH1 0x40 MLOAD DUP1 DUP4 SUB DUP2 DUP6 DUP9 DUP9 CALL SWAP4 POP POP POP POP ISZERO DUP1 ISZERO PUSH2 0x3DC JUMPI RETURNDATASIZE PUSH1 0x0 DUP1 RETURNDATACOPY RETURNDATASIZE PUSH1 0x0 REVERT JUMPDEST POP PUSH1 0x1 DUP2 PUSH1 0x2 ADD PUSH1 0x14 PUSH2 0x100 EXP DUP2 SLOAD DUP2 PUSH1 0xFF MUL NOT AND SWAP1 DUP4 ISZERO ISZERO MUL OR SWAP1 SSTORE POP POP POP JUMP JUMPDEST PUSH1 0x0 DUP1 PUSH1 0x0 DUP1 PUSH1 0x0 PUSH1 0x1 SLOAD SELFBALANCE PUSH1 0x4 SLOAD PUSH1 0x2 SLOAD PUSH1 0x0 DUP1 SLOAD SWAP1 PUSH2 0x100 EXP SWAP1 DIV PUSH20 0xFFFFFFFFFFFFFFFFFFFFFFFFFFFFFFFFFFFFFFFF AND SWAP5 POP SWAP5 POP SWAP5 POP SWAP5 POP SWAP5 POP SWAP1 SWAP2 SWAP3 SWAP4 SWAP5 JUMP JUMPDEST PUSH1 0x2 SLOAD DUP2 JUMP JUMPDEST PUSH1 0x0 PUSH1 0x4 SLOAD SWAP1 POP SWAP1 JUMP JUMPDEST PUSH1 0x3 PUSH1 0x20 MSTORE DUP1 PUSH1 0x0 MSTORE PUSH1 0x40 PUSH1 0x0 KECCAK256 PUSH1 0x0 SWAP2 POP SLOAD SWAP1 PUSH2 0x100 EXP SWAP1 DIV PUSH1 0xFF AND DUP2 JUMP JUMPDEST PUSH1 0x0 DUP1 SLOAD SWAP1 PUSH2 0x100 EXP SWAP1 DIV PUSH20 0xFFFFFFFFFFFFFFFFFFFFFFFFFFFFFFFFFFFFFFFF AND DUP2 JUMP JUMPDEST PUSH1 0x5 PUSH1 0x20 MSTORE DUP1 PUSH1 0x0 MSTORE PUSH1 0x40 PUSH1 0x0 KECCAK256 PUSH1 0x0 SWAP2 POP SWAP1 POP DUP1 PUSH1 0x0 ADD DUP1 SLOAD PUSH2 0x4B9 SWAP1 PUSH2 0xCF1 JUMP JUMPDEST DUP1 PUSH1 0x1F ADD PUSH1 0x20 DUP1 SWAP2 DIV MUL PUSH1 0x20 ADD PUSH1 0x40 MLOAD SWAP1 DUP2 ADD PUSH1 0x40 MSTORE DUP1 SWAP3 SWAP2 SWAP1 DUP2 DUP2 MSTORE PUSH1 0x20 ADD DUP3 DUP1 SLOAD PUSH2 0x4E5 SWAP1 PUSH2 0xCF1 JUMP JUMPDEST DUP1 ISZERO PUSH2 0x532 JUMPI DUP1 PUSH1 0x1F LT PUSH2 0x507 JUMPI PUSH2 0x100 DUP1 DUP4 SLOAD DIV MUL DUP4 MSTORE SWAP2 PUSH1 0x20 ADD SWAP2 PUSH2 0x532 JUMP JUMPDEST DUP3 ADD SWAP2 SWAP1 PUSH1 0x0 MSTORE PUSH1 0x20 PUSH1 0x0 KECCAK256 SWAP1 JUMPDEST DUP2 SLOAD DUP2 MSTORE SWAP1 PUSH1 0x1 ADD SWAP1 PUSH1 0x20 ADD DUP1 DUP4 GT PUSH2 0x515 JUMPI DUP3 SWAP1 SUB PUSH1 0x1F AND DUP3 ADD SWAP2 JUMPDEST POP POP POP POP POP SWAP1 DUP1 PUSH1 0x1 ADD SLOAD SWAP1 DUP1 PUSH1 0x2 ADD PUSH1 0x0 SWAP1 SLOAD SWAP1 PUSH2 0x100 EXP SWAP1 DIV PUSH20 0xFFFFFFFFFFFFFFFFFFFFFFFFFFFFFFFFFFFFFFFF AND SWAP1 DUP1 PUSH1 0x2 ADD PUSH1 0x14 SWAP1 SLOAD SWAP1 PUSH2 0x100 EXP SWAP1 DIV PUSH1 0xFF AND SWAP1 DUP1 PUSH1 0x3 ADD SLOAD SWAP1 POP DUP6 JUMP JUMPDEST PUSH1 0x0 DUP1 SLOAD SWAP1 PUSH2 0x100 EXP SWAP1 DIV PUSH20 0xFFFFFFFFFFFFFFFFFFFFFFFFFFFFFFFFFFFFFFFF AND PUSH20 0xFFFFFFFFFFFFFFFFFFFFFFFFFFFFFFFFFFFFFFFF AND CALLER PUSH20 0xFFFFFFFFFFFFFFFFFFFFFFFFFFFFFFFFFFFFFFFF AND EQ PUSH2 0x5D9 JUMPI PUSH1 0x0 DUP1 REVERT JUMPDEST PUSH1 0x0 PUSH1 0x5 PUSH1 0x0 PUSH1 0x4 SLOAD DUP2 MSTORE PUSH1 0x20 ADD SWAP1 DUP2 MSTORE PUSH1 0x20 ADD PUSH1 0x0 KECCAK256 SWAP1 POP DUP4 DUP2 PUSH1 0x0 ADD SWAP1 DUP1 MLOAD SWAP1 PUSH1 0x20 ADD SWAP1 PUSH2 0x60A SWAP3 SWAP2 SWAP1 PUSH2 0x867 JUMP JUMPDEST POP DUP3 DUP2 PUSH1 0x1 ADD DUP2 SWAP1 SSTORE POP DUP2 DUP2 PUSH1 0x2 ADD PUSH1 0x0 PUSH2 0x100 EXP DUP2 SLOAD DUP2 PUSH20 0xFFFFFFFFFFFFFFFFFFFFFFFFFFFFFFFFFFFFFFFF MUL NOT AND SWAP1 DUP4 PUSH20 0xFFFFFFFFFFFFFFFFFFFFFFFFFFFFFFFFFFFFFFFF AND MUL OR SWAP1 SSTORE POP PUSH1 0x0 DUP2 PUSH1 0x2 ADD PUSH1 0x14 PUSH2 0x100 EXP DUP2 SLOAD DUP2 PUSH1 0xFF MUL NOT AND SWAP1 DUP4 ISZERO ISZERO MUL OR SWAP1 SSTORE POP PUSH1 0x0 DUP2 PUSH1 0x3 ADD DUP2 SWAP1 SSTORE POP PUSH1 0x4 PUSH1 0x0 DUP2 SLOAD DUP1 SWAP3 SWAP2 SWAP1 PUSH2 0x691 SWAP1 PUSH2 0xD23 JUMP JUMPDEST SWAP2 SWAP1 POP SSTORE POP POP POP POP POP JUMP JUMPDEST PUSH1 0x1 SLOAD DUP2 JUMP JUMPDEST PUSH1 0x1 SLOAD CALLVALUE LT ISZERO PUSH2 0x6B1 JUMPI PUSH1 0x0 DUP1 REVERT JUMPDEST PUSH1 0x1 PUSH1 0x3 PUSH1 0x0 CALLER PUSH20 0xFFFFFFFFFFFFFFFFFFFFFFFFFFFFFFFFFFFFFFFF AND PUSH20 0xFFFFFFFFFFFFFFFFFFFFFFFFFFFFFFFFFFFFFFFF AND DUP2 MSTORE PUSH1 0x20 ADD SWAP1 DUP2 MSTORE PUSH1 0x20 ADD PUSH1 0x0 KECCAK256 PUSH1 0x0 PUSH2 0x100 EXP DUP2 SLOAD DUP2 PUSH1 0xFF MUL NOT AND SWAP1 DUP4 ISZERO ISZERO MUL OR SWAP1 SSTORE POP PUSH1 0x2 PUSH1 0x0 DUP2 SLOAD DUP1 SWAP3 SWAP2 SWAP1 PUSH2 0x71C SWAP1 PUSH2 0xD23 JUMP JUMPDEST SWAP2 SWAP1 POP SSTORE POP JUMP JUMPDEST PUSH1 0x4 SLOAD DUP2 JUMP JUMPDEST PUSH1 0x3 PUSH1 0x0 CALLER PUSH20 0xFFFFFFFFFFFFFFFFFFFFFFFFFFFFFFFFFFFFFFFF AND PUSH20 0xFFFFFFFFFFFFFFFFFFFFFFFFFFFFFFFFFFFFFFFF AND DUP2 MSTORE PUSH1 0x20 ADD SWAP1 DUP2 MSTORE PUSH1 0x20 ADD PUSH1 0x0 KECCAK256 PUSH1 0x0 SWAP1 SLOAD SWAP1 PUSH2 0x100 EXP SWAP1 DIV PUSH1 0xFF AND PUSH2 0x77F JUMPI PUSH1 0x0 DUP1 REVERT JUMPDEST PUSH1 0x0 PUSH1 0x5 PUSH1 0x0 DUP4 DUP2 MSTORE PUSH1 0x20 ADD SWAP1 DUP2 MSTORE PUSH1 0x20 ADD PUSH1 0x0 KECCAK256 SWAP1 POP DUP1 PUSH1 0x4 ADD PUSH1 0x0 CALLER PUSH20 0xFFFFFFFFFFFFFFFFFFFFFFFFFFFFFFFFFFFFFFFF AND PUSH20 0xFFFFFFFFFFFFFFFFFFFFFFFFFFFFFFFFFFFFFFFF AND DUP2 MSTORE PUSH1 0x20 ADD SWAP1 DUP2 MSTORE PUSH1 0x20 ADD PUSH1 0x0 KECCAK256 PUSH1 0x0 SWAP1 SLOAD SWAP1 PUSH2 0x100 EXP SWAP1 DIV PUSH1 0xFF AND ISZERO PUSH2 0x7EF JUMPI PUSH1 0x0 DUP1 REVERT JUMPDEST PUSH1 0x1 DUP2 PUSH1 0x4 ADD PUSH1 0x0 CALLER PUSH20 0xFFFFFFFFFFFFFFFFFFFFFFFFFFFFFFFFFFFFFFFF AND PUSH20 0xFFFFFFFFFFFFFFFFFFFFFFFFFFFFFFFFFFFFFFFF AND DUP2 MSTORE PUSH1 0x20 ADD SWAP1 DUP2 MSTORE PUSH1 0x20 ADD PUSH1 0x0 KECCAK256 PUSH1 0x0 PUSH2 0x100 EXP DUP2 SLOAD DUP2 PUSH1 0xFF MUL NOT AND SWAP1 DUP4 ISZERO ISZERO MUL OR SWAP1 SSTORE POP DUP1 PUSH1 0x3 ADD PUSH1 0x0 DUP2 SLOAD DUP1 SWAP3 SWAP2 SWAP1 PUSH2 0x85E SWAP1 PUSH2 0xD23 JUMP JUMPDEST SWAP2 SWAP1 POP SSTORE POP POP POP JUMP JUMPDEST DUP3 DUP1 SLOAD PUSH2 0x873 SWAP1 PUSH2 0xCF1 JUMP JUMPDEST SWAP1 PUSH1 0x0 MSTORE PUSH1 0x20 PUSH1 0x0 KECCAK256 SWAP1 PUSH1 0x1F ADD PUSH1 0x20 SWAP1 DIV DUP2 ADD SWAP3 DUP3 PUSH2 0x895 JUMPI PUSH1 0x0 DUP6 SSTORE PUSH2 0x8DC JUMP JUMPDEST DUP3 PUSH1 0x1F LT PUSH2 0x8AE JUMPI DUP1 MLOAD PUSH1 0xFF NOT AND DUP4 DUP1 ADD OR DUP6 SSTORE PUSH2 0x8DC JUMP JUMPDEST DUP3 DUP1 ADD PUSH1 0x1 ADD DUP6 SSTORE DUP3 ISZERO PUSH2 0x8DC JUMPI SWAP2 DUP3 ADD JUMPDEST DUP3 DUP2 GT ISZERO PUSH2 0x8DB JUMPI DUP3 MLOAD DUP3 SSTORE SWAP2 PUSH1 0x20 ADD SWAP2 SWAP1 PUSH1 0x1 ADD SWAP1 PUSH2 0x8C0 JUMP JUMPDEST JUMPDEST POP SWAP1 POP PUSH2 0x8E9 SWAP2 SWAP1 PUSH2 0x8ED JUMP JUMPDEST POP SWAP1 JUMP JUMPDEST JUMPDEST DUP1 DUP3 GT ISZERO PUSH2 0x906 JUMPI PUSH1 0x0 DUP2 PUSH1 0x0 SWAP1 SSTORE POP PUSH1 0x1 ADD PUSH2 0x8EE JUMP JUMPDEST POP SWAP1 JUMP JUMPDEST PUSH1 0x0 PUSH2 0x91D PUSH2 0x918 DUP5 PUSH2 0xBEA JUMP JUMPDEST PUSH2 0xBB9 JUMP JUMPDEST SWAP1 POP DUP3 DUP2 MSTORE PUSH1 0x20 DUP2 ADD DUP5 DUP5 DUP5 ADD GT ISZERO PUSH2 0x935 JUMPI PUSH1 0x0 DUP1 REVERT JUMPDEST PUSH2 0x940 DUP5 DUP3 DUP6 PUSH2 0xCAF JUMP JUMPDEST POP SWAP4 SWAP3 POP POP POP JUMP JUMPDEST PUSH1 0x0 DUP2 CALLDATALOAD SWAP1 POP PUSH2 0x957 DUP2 PUSH2 0xE39 JUMP JUMPDEST SWAP3 SWAP2 POP POP JUMP JUMPDEST PUSH1 0x0 DUP3 PUSH1 0x1F DUP4 ADD SLT PUSH2 0x96E JUMPI PUSH1 0x0 DUP1 REVERT JUMPDEST DUP2 CALLDATALOAD PUSH2 0x97E DUP5 DUP3 PUSH1 0x20 DUP7 ADD PUSH2 0x90A JUMP JUMPDEST SWAP2 POP POP SWAP3 SWAP2 POP POP JUMP JUMPDEST PUSH1 0x0 DUP2 CALLDATALOAD SWAP1 POP PUSH2 0x996 DUP2 PUSH2 0xE50 JUMP JUMPDEST SWAP3 SWAP2 POP POP JUMP JUMPDEST PUSH1 0x0 PUSH1 0x20 DUP3 DUP5 SUB SLT ISZERO PUSH2 0x9AE JUMPI PUSH1 0x0 DUP1 REVERT JUMPDEST PUSH1 0x0 PUSH2 0x9BC DUP5 DUP3 DUP6 ADD PUSH2 0x948 JUMP JUMPDEST SWAP2 POP POP SWAP3 SWAP2 POP POP JUMP JUMPDEST PUSH1 0x0 DUP1 PUSH1 0x0 PUSH1 0x60 DUP5 DUP7 SUB SLT ISZERO PUSH2 0x9DA JUMPI PUSH1 0x0 DUP1 REVERT JUMPDEST PUSH1 0x0 DUP5 ADD CALLDATALOAD PUSH8 0xFFFFFFFFFFFFFFFF DUP2 GT ISZERO PUSH2 0x9F4 JUMPI PUSH1 0x0 DUP1 REVERT JUMPDEST PUSH2 0xA00 DUP7 DUP3 DUP8 ADD PUSH2 0x95D JUMP JUMPDEST SWAP4 POP POP PUSH1 0x20 PUSH2 0xA11 DUP7 DUP3 DUP8 ADD PUSH2 0x987 JUMP JUMPDEST SWAP3 POP POP PUSH1 0x40 PUSH2 0xA22 DUP7 DUP3 DUP8 ADD PUSH2 0x948 JUMP JUMPDEST SWAP2 POP POP SWAP3 POP SWAP3 POP SWAP3 JUMP JUMPDEST PUSH1 0x0 PUSH1 0x20 DUP3 DUP5 SUB SLT ISZERO PUSH2 0xA3E JUMPI PUSH1 0x0 DUP1 REVERT JUMPDEST PUSH1 0x0 PUSH2 0xA4C DUP5 DUP3 DUP6 ADD PUSH2 0x987 JUMP JUMPDEST SWAP2 POP POP SWAP3 SWAP2 POP POP JUMP JUMPDEST PUSH2 0xA5E DUP2 PUSH2 0xC67 JUMP JUMPDEST DUP3 MSTORE POP POP JUMP JUMPDEST PUSH2 0xA6D DUP2 PUSH2 0xC79 JUMP JUMPDEST DUP3 MSTORE POP POP JUMP JUMPDEST PUSH1 0x0 PUSH2 0xA7E DUP3 PUSH2 0xC1A JUMP JUMPDEST PUSH2 0xA88 DUP2 DUP6 PUSH2 0xC25 JUMP JUMPDEST SWAP4 POP PUSH2 0xA98 DUP2 DUP6 PUSH1 0x20 DUP7 ADD PUSH2 0xCBE JUMP JUMPDEST PUSH2 0xAA1 DUP2 PUSH2 0xE28 JUMP JUMPDEST DUP5 ADD SWAP2 POP POP SWAP3 SWAP2 POP POP JUMP JUMPDEST PUSH2 0xAB5 DUP2 PUSH2 0xCA5 JUMP JUMPDEST DUP3 MSTORE POP POP JUMP JUMPDEST PUSH1 0x0 PUSH1 0x20 DUP3 ADD SWAP1 POP PUSH2 0xAD0 PUSH1 0x0 DUP4 ADD DUP5 PUSH2 0xA55 JUMP JUMPDEST SWAP3 SWAP2 POP POP JUMP JUMPDEST PUSH1 0x0 PUSH1 0x20 DUP3 ADD SWAP1 POP PUSH2 0xAEB PUSH1 0x0 DUP4 ADD DUP5 PUSH2 0xA64 JUMP JUMPDEST SWAP3 SWAP2 POP POP JUMP JUMPDEST PUSH1 0x0 PUSH1 0xA0 DUP3 ADD SWAP1 POP DUP2 DUP2 SUB PUSH1 0x0 DUP4 ADD MSTORE PUSH2 0xB0B DUP2 DUP9 PUSH2 0xA73 JUMP JUMPDEST SWAP1 POP PUSH2 0xB1A PUSH1 0x20 DUP4 ADD DUP8 PUSH2 0xAAC JUMP JUMPDEST PUSH2 0xB27 PUSH1 0x40 DUP4 ADD DUP7 PUSH2 0xA55 JUMP JUMPDEST PUSH2 0xB34 PUSH1 0x60 DUP4 ADD DUP6 PUSH2 0xA64 JUMP JUMPDEST PUSH2 0xB41 PUSH1 0x80 DUP4 ADD DUP5 PUSH2 0xAAC JUMP JUMPDEST SWAP7 SWAP6 POP POP POP POP POP POP JUMP JUMPDEST PUSH1 0x0 PUSH1 0x20 DUP3 ADD SWAP1 POP PUSH2 0xB60 PUSH1 0x0 DUP4 ADD DUP5 PUSH2 0xAAC JUMP JUMPDEST SWAP3 SWAP2 POP POP JUMP JUMPDEST PUSH1 0x0 PUSH1 0xA0 DUP3 ADD SWAP1 POP PUSH2 0xB7B PUSH1 0x0 DUP4 ADD DUP9 PUSH2 0xAAC JUMP JUMPDEST PUSH2 0xB88 PUSH1 0x20 DUP4 ADD DUP8 PUSH2 0xAAC JUMP JUMPDEST PUSH2 0xB95 PUSH1 0x40 DUP4 ADD DUP7 PUSH2 0xAAC JUMP JUMPDEST PUSH2 0xBA2 PUSH1 0x60 DUP4 ADD DUP6 PUSH2 0xAAC JUMP JUMPDEST PUSH2 0xBAF PUSH1 0x80 DUP4 ADD DUP5 PUSH2 0xA55 JUMP JUMPDEST SWAP7 SWAP6 POP POP POP POP POP POP JUMP JUMPDEST PUSH1 0x0 PUSH1 0x40 MLOAD SWAP1 POP DUP2 DUP2 ADD DUP2 DUP2 LT PUSH8 0xFFFFFFFFFFFFFFFF DUP3 GT OR ISZERO PUSH2 0xBE0 JUMPI PUSH2 0xBDF PUSH2 0xDF9 JUMP JUMPDEST JUMPDEST DUP1 PUSH1 0x40 MSTORE POP SWAP2 SWAP1 POP JUMP JUMPDEST PUSH1 0x0 PUSH8 0xFFFFFFFFFFFFFFFF DUP3 GT ISZERO PUSH2 0xC05 JUMPI PUSH2 0xC04 PUSH2 0xDF9 JUMP JUMPDEST JUMPDEST PUSH1 0x1F NOT PUSH1 0x1F DUP4 ADD AND SWAP1 POP PUSH1 0x20 DUP2 ADD SWAP1 POP SWAP2 SWAP1 POP JUMP JUMPDEST PUSH1 0x0 DUP2 MLOAD SWAP1 POP SWAP2 SWAP1 POP JUMP JUMPDEST PUSH1 0x0 DUP3 DUP3 MSTORE PUSH1 0x20 DUP3 ADD SWAP1 POP SWAP3 SWAP2 POP POP JUMP JUMPDEST PUSH1 0x0 PUSH2 0xC41 DUP3 PUSH2 0xCA5 JUMP JUMPDEST SWAP2 POP PUSH2 0xC4C DUP4 PUSH2 0xCA5 JUMP JUMPDEST SWAP3 POP DUP3 PUSH2 0xC5C JUMPI PUSH2 0xC5B PUSH2 0xD9B JUMP JUMPDEST JUMPDEST DUP3 DUP3 DIV SWAP1 POP SWAP3 SWAP2 POP POP JUMP JUMPDEST PUSH1 0x0 PUSH2 0xC72 DUP3 PUSH2 0xC85 JUMP JUMPDEST SWAP1 POP SWAP2 SWAP1 POP JUMP JUMPDEST PUSH1 0x0 DUP2 ISZERO ISZERO SWAP1 POP SWAP2 SWAP1 POP JUMP JUMPDEST PUSH1 0x0 PUSH20 0xFFFFFFFFFFFFFFFFFFFFFFFFFFFFFFFFFFFFFFFF DUP3 AND SWAP1 POP SWAP2 SWAP1 POP JUMP JUMPDEST PUSH1 0x0 DUP2 SWAP1 POP SWAP2 SWAP1 POP JUMP JUMPDEST DUP3 DUP2 DUP4 CALLDATACOPY PUSH1 0x0 DUP4 DUP4 ADD MSTORE POP POP POP JUMP JUMPDEST PUSH1 0x0 JUMPDEST DUP4 DUP2 LT ISZERO PUSH2 0xCDC JUMPI DUP1 DUP3 ADD MLOAD DUP2 DUP5 ADD MSTORE PUSH1 0x20 DUP2 ADD SWAP1 POP PUSH2 0xCC1 JUMP JUMPDEST DUP4 DUP2 GT ISZERO PUSH2 0xCEB JUMPI PUSH1 0x0 DUP5 DUP5 ADD MSTORE JUMPDEST POP POP POP POP JUMP JUMPDEST PUSH1 0x0 PUSH1 0x2 DUP3 DIV SWAP1 POP PUSH1 0x1 DUP3 AND DUP1 PUSH2 0xD09 JUMPI PUSH1 0x7F DUP3 AND SWAP2 POP JUMPDEST PUSH1 0x20 DUP3 LT DUP2 EQ ISZERO PUSH2 0xD1D JUMPI PUSH2 0xD1C PUSH2 0xDCA JUMP JUMPDEST JUMPDEST POP SWAP2 SWAP1 POP JUMP JUMPDEST PUSH1 0x0 PUSH2 0xD2E DUP3 PUSH2 0xCA5 JUMP JUMPDEST SWAP2 POP PUSH32 0xFFFFFFFFFFFFFFFFFFFFFFFFFFFFFFFFFFFFFFFFFFFFFFFFFFFFFFFFFFFFFFFF DUP3 EQ ISZERO PUSH2 0xD61 JUMPI PUSH2 0xD60 PUSH2 0xD6C JUMP JUMPDEST JUMPDEST PUSH1 0x1 DUP3 ADD SWAP1 POP SWAP2 SWAP1 POP JUMP JUMPDEST PUSH32 0x4E487B7100000000000000000000000000000000000000000000000000000000 PUSH1 0x0 MSTORE PUSH1 0x11 PUSH1 0x4 MSTORE PUSH1 0x24 PUSH1 0x0 REVERT JUMPDEST PUSH32 0x4E487B7100000000000000000000000000000000000000000000000000000000 PUSH1 0x0 MSTORE PUSH1 0x12 PUSH1 0x4 MSTORE PUSH1 0x24 PUSH1 0x0 REVERT JUMPDEST PUSH32 0x4E487B7100000000000000000000000000000000000000000000000000000000 PUSH1 0x0 MSTORE PUSH1 0x22 PUSH1 0x4 MSTORE PUSH1 0x24 PUSH1 0x0 REVERT JUMPDEST PUSH32 0x4E487B7100000000000000000000000000000000000000000000000000000000 PUSH1 0x0 MSTORE PUSH1 0x41 PUSH1 0x4 MSTORE PUSH1 0x24 PUSH1 0x0 REVERT JUMPDEST PUSH1 0x0 PUSH1 0x1F NOT PUSH1 0x1F DUP4 ADD AND SWAP1 POP SWAP2 SWAP1 POP JUMP JUMPDEST PUSH2 0xE42 DUP2 PUSH2 0xC67 JUMP JUMPDEST DUP2 EQ PUSH2 0xE4D JUMPI PUSH1 0x0 DUP1 REVERT JUMPDEST POP JUMP JUMPDEST PUSH2 0xE59 DUP2 PUSH2 0xCA5 JUMP JUMPDEST DUP2 EQ PUSH2 0xE64 JUMPI PUSH1 0x0 DUP1 REVERT JUMPDEST POP JUMP INVALID LOG2 PUSH5 0x6970667358 0x22 SLT KECCAK256 0xD3 0xEF 0xC1 0xB6 SWAP12 LOG4 DUP4 COINBASE MSIZE PUSH22 0x3890DB35888BDEF4736BE98C9C7D63EF496A031F1C2D PUSH5 0x736F6C6343 STOP ADDMOD STOP STOP CALLER "},"gasEstimates":{"creation":{"codeDepositCost":"748200","executionCost":"infinite","totalCost":"infinite"},"external":{"ApproveRequest(uint256)":"infinite","Contribute()":"42927","CreateRequest(string,uint256,address)":"infinite","FinalizeRequest(uint256)":"infinite","GetRequestCount()":"1204","GetSummary()":"infinite","contributers(address)":"1634","manager()":"1322","minimumContribution()":"1173","nextRequestKey()":"1217","numberOfContributers()":"1174","requests(uint256)":"infinite"}},"methodIdentifiers":{"ApproveRequest(uint256)":"ff01fd81","Contribute()":"b309a91a","CreateRequest(string,uint256,address)":"8ab1a3c4","FinalizeRequest(uint256)":"0738ffcd","GetRequestCount()":"2e35ba37","GetSummary()":"19b889e2","contributers(address)":"34b66460","manager()":"481c6a75","minimumContribution()":"937e09b1","nextRequestKey()":"d8b67536","numberOfContributers()":"20dd3de7","requests(uint256)":"81d12c58"}}}